{
	"data": {
		"bytecode": {
			"linkReferences": {},
			"object": "6080604052348015600e575f80fd5b503360065f6101000a81548173ffffffffffffffffffffffffffffffffffffffff021916908373ffffffffffffffffffffffffffffffffffffffff160217905550612d848061005c5f395ff3fe608060405234801561000f575f80fd5b50600436106100b2575f3560e01c80637dbb16e41161006f5780637dbb16e41461019d5780638070d783146101b957806384f78c84146101d5578063a0b832e814610206578063c05754e314610237578063d221208414610253576100b2565b80630b6532ca146100b657806316b26304146100d257806350c5dcfe1461010257806356b310f7146101335780636af851c71461014f5780637062b97d1461017f575b5f80fd5b6100d060048036038101906100cb9190611fbe565b61026f565b005b6100ec60048036038101906100e79190611fbe565b6103b6565b6040516100f991906120e5565b60405180910390f35b61011c60048036038101906101179190611fbe565b61053c565b60405161012a929190612175565b60405180910390f35b61014d600480360381019061014891906121aa565b610a74565b005b61016960048036038101906101649190611fbe565b610bdb565b604051610176919061233f565b60405180910390f35b610187610e2c565b604051610194919061236e565b60405180910390f35b6101b760048036038101906101b291906124b3565b610e51565b005b6101d360048036038101906101ce919061250d565b610f2f565b005b6101ef60048036038101906101ea9190611fbe565b6110dc565b6040516101fd929190612175565b60405180910390f35b610220600480360381019061021b91906124b3565b6115a4565b60405161022e929190612175565b60405180910390f35b610251600480360381019061024c91906124b3565b611b01565b005b61026d600480360381019061026891906125bf565b611d98565b005b60065f9054906101000a900473ffffffffffffffffffffffffffffffffffffffff1673ffffffffffffffffffffffffffffffffffffffff163373ffffffffffffffffffffffffffffffffffffffff16146102fe576040517f08c379a00000000000000000000000000000000000000000000000000000000081526004016102f59061267f565b60405180910390fd5b5f805f8373ffffffffffffffffffffffffffffffffffffffff1673ffffffffffffffffffffffffffffffffffffffff1681526020019081526020015f205f015f6101000a81548173ffffffffffffffffffffffffffffffffffffffff021916908373ffffffffffffffffffffffffffffffffffffffff1602179055507f2b42379838597c2783589ad0916ddc52ea245d36ebafa61aded63868021f944f815f6040516103ab92919061269d565b60405180910390a150565b606060065f9054906101000a900473ffffffffffffffffffffffffffffffffffffffff1673ffffffffffffffffffffffffffffffffffffffff163373ffffffffffffffffffffffffffffffffffffffff1614610447576040517f08c379a000000000000000000000000000000000000000000000000000000000815260040161043e9061267f565b60405180910390fd5b60015f8373ffffffffffffffffffffffffffffffffffffffff1673ffffffffffffffffffffffffffffffffffffffff1681526020019081526020015f20805480602002602001604051908101604052809291908181526020015f905b82821015610531578382905f5260205f2090600202016040518060400160405290815f82015f9054906101000a900473ffffffffffffffffffffffffffffffffffffffff1673ffffffffffffffffffffffffffffffffffffffff1673ffffffffffffffffffffffffffffffffffffffff168152602001600182015481525050815260200190600101906104a3565b505050509050919050565b606080825f805b60035f8473ffffffffffffffffffffffffffffffffffffffff1673ffffffffffffffffffffffffffffffffffffffff1681526020019081526020015f20805490508110156106ba573373ffffffffffffffffffffffffffffffffffffffff1660035f8573ffffffffffffffffffffffffffffffffffffffff1673ffffffffffffffffffffffffffffffffffffffff1681526020019081526020015f2082815481106105f1576105f06126c4565b5b905f5260205f2090600202015f015f9054906101000a900473ffffffffffffffffffffffffffffffffffffffff1673ffffffffffffffffffffffffffffffffffffffff1614801561069f57504260035f8573ffffffffffffffffffffffffffffffffffffffff1673ffffffffffffffffffffffffffffffffffffffff1681526020019081526020015f20828154811061068d5761068c6126c4565b5b905f5260205f20906002020160010154115b156106ad57600191506106ba565b8080600101915050610543565b508080610713575060065f9054906101000a900473ffffffffffffffffffffffffffffffffffffffff1673ffffffffffffffffffffffffffffffffffffffff163373ffffffffffffffffffffffffffffffffffffffff16145b610752576040517f08c379a000000000000000000000000000000000000000000000000000000000815260040161074990612761565b60405180910390fd5b5f805f8773ffffffffffffffffffffffffffffffffffffffff1673ffffffffffffffffffffffffffffffffffffffff1681526020019081526020015f206040518060600160405290815f82015f9054906101000a900473ffffffffffffffffffffffffffffffffffffffff1673ffffffffffffffffffffffffffffffffffffffff1673ffffffffffffffffffffffffffffffffffffffff1681526020016001820180546107fe906127ac565b80601f016020809104026020016040519081016040528092919081815260200182805461082a906127ac565b80156108755780601f1061084c57610100808354040283529160200191610875565b820191905f5260205f20905b81548152906001019060200180831161085857829003601f168201915b5050505050815260200160028201805461088e906127ac565b80601f01602080910402602001604051908101604052809291908181526020018280546108ba906127ac565b80156109055780601f106108dc57610100808354040283529160200191610905565b820191905f5260205f20905b8154815290600101906020018083116108e857829003601f168201915b505050505081525050905060015f8773ffffffffffffffffffffffffffffffffffffffff1673ffffffffffffffffffffffffffffffffffffffff1681526020019081526020015f2060405180604001604052803373ffffffffffffffffffffffffffffffffffffffff16815260200142815250908060018154018082558091505060019003905f5260205f2090600202015f909190919091505f820151815f015f6101000a81548173ffffffffffffffffffffffffffffffffffffffff021916908373ffffffffffffffffffffffffffffffffffffffff1602179055506020820151816001015550507fa6b0e89a817b329eadd0871571da46cddb5d6edc8228b9edd3174a5879f662088633604051610a1f92919061269d565b60405180910390a17f69df56ccc17214c6cb2a6814eee495bf5a9fd5fdbd1e12392cdfbe549bccf25b86604051610a569190612826565b60405180910390a18060200151816040015194509450505050915091565b60065f9054906101000a900473ffffffffffffffffffffffffffffffffffffffff1673ffffffffffffffffffffffffffffffffffffffff163373ffffffffffffffffffffffffffffffffffffffff1614610b03576040517f08c379a0000000000000000000000000000000000000000000000000000000008152600401610afa9061267f565b60405180910390fd5b60045f8373ffffffffffffffffffffffffffffffffffffffff1673ffffffffffffffffffffffffffffffffffffffff1681526020019081526020015f2081908060018154018082558091505060019003905f5260205f20015f9091909190916101000a81548173ffffffffffffffffffffffffffffffffffffffff021916908373ffffffffffffffffffffffffffffffffffffffff1602179055507f2b42379838597c2783589ad0916ddc52ea245d36ebafa61aded63868021f944f8282604051610bcf92919061269d565b60405180910390a15050565b606060065f9054906101000a900473ffffffffffffffffffffffffffffffffffffffff1673ffffffffffffffffffffffffffffffffffffffff163373ffffffffffffffffffffffffffffffffffffffff1614610c6c576040517f08c379a0000000000000000000000000000000000000000000000000000000008152600401610c639061267f565b60405180910390fd5b60025f8373ffffffffffffffffffffffffffffffffffffffff1673ffffffffffffffffffffffffffffffffffffffff1681526020019081526020015f20805480602002602001604051908101604052809291908181526020015f905b82821015610e21578382905f5260205f2090600302016040518060600160405290815f82018054610cf8906127ac565b80601f0160208091040260200160405190810160405280929190818152602001828054610d24906127ac565b8015610d6f5780601f10610d4657610100808354040283529160200191610d6f565b820191905f5260205f20905b815481529060010190602001808311610d5257829003601f168201915b50505050508152602001600182018054610d88906127ac565b80601f0160208091040260200160405190810160405280929190818152602001828054610db4906127ac565b8015610dff5780601f10610dd657610100808354040283529160200191610dff565b820191905f5260205f20905b815481529060010190602001808311610de257829003601f168201915b5050505050815260200160028201548152505081526020019060010190610cc8565b505050509050919050565b60065f9054906101000a900473ffffffffffffffffffffffffffffffffffffffff1681565b60065f9054906101000a900473ffffffffffffffffffffffffffffffffffffffff1673ffffffffffffffffffffffffffffffffffffffff163373ffffffffffffffffffffffffffffffffffffffff1614610ee0576040517f08c379a0000000000000000000000000000000000000000000000000000000008152600401610ed79061267f565b60405180910390fd5b8060055f8473ffffffffffffffffffffffffffffffffffffffff1673ffffffffffffffffffffffffffffffffffffffff1681526020019081526020015f209081610f2a91906129ef565b505050565b60065f9054906101000a900473ffffffffffffffffffffffffffffffffffffffff1673ffffffffffffffffffffffffffffffffffffffff163373ffffffffffffffffffffffffffffffffffffffff1614610fbe576040517f08c379a0000000000000000000000000000000000000000000000000000000008152600401610fb59061267f565b60405180910390fd5b60405180606001604052805f73ffffffffffffffffffffffffffffffffffffffff168152602001838152602001828152505f808573ffffffffffffffffffffffffffffffffffffffff1673ffffffffffffffffffffffffffffffffffffffff1681526020019081526020015f205f820151815f015f6101000a81548173ffffffffffffffffffffffffffffffffffffffff021916908373ffffffffffffffffffffffffffffffffffffffff160217905550602082015181600101908161108491906129ef565b50604082015181600201908161109a91906129ef565b509050507fd1ad2a6df0db4f8eae96780a7abdc302a7226a0dd990f07551bbfccce9a2f4a383836040516110cf929190612abe565b60405180910390a1505050565b606080825f805b60045f8473ffffffffffffffffffffffffffffffffffffffff1673ffffffffffffffffffffffffffffffffffffffff1681526020019081526020015f20805490508110156111ea573373ffffffffffffffffffffffffffffffffffffffff1660045f8573ffffffffffffffffffffffffffffffffffffffff1673ffffffffffffffffffffffffffffffffffffffff1681526020019081526020015f208281548110611191576111906126c4565b5b905f5260205f20015f9054906101000a900473ffffffffffffffffffffffffffffffffffffffff1673ffffffffffffffffffffffffffffffffffffffff16036111dd57600191506111ea565b80806001019150506110e3565b508080611243575060065f9054906101000a900473ffffffffffffffffffffffffffffffffffffffff1673ffffffffffffffffffffffffffffffffffffffff163373ffffffffffffffffffffffffffffffffffffffff16145b611282576040517f08c379a000000000000000000000000000000000000000000000000000000000815260040161127990612b82565b60405180910390fd5b5f805f8773ffffffffffffffffffffffffffffffffffffffff1673ffffffffffffffffffffffffffffffffffffffff1681526020019081526020015f206040518060600160405290815f82015f9054906101000a900473ffffffffffffffffffffffffffffffffffffffff1673ffffffffffffffffffffffffffffffffffffffff1673ffffffffffffffffffffffffffffffffffffffff16815260200160018201805461132e906127ac565b80601f016020809104026020016040519081016040528092919081815260200182805461135a906127ac565b80156113a55780601f1061137c576101008083540402835291602001916113a5565b820191905f5260205f20905b81548152906001019060200180831161138857829003601f168201915b505050505081526020016002820180546113be906127ac565b80601f01602080910402602001604051908101604052809291908181526020018280546113ea906127ac565b80156114355780601f1061140c57610100808354040283529160200191611435565b820191905f5260205f20905b81548152906001019060200180831161141857829003601f168201915b505050505081525050905060015f8773ffffffffffffffffffffffffffffffffffffffff1673ffffffffffffffffffffffffffffffffffffffff1681526020019081526020015f2060405180604001604052803373ffffffffffffffffffffffffffffffffffffffff16815260200142815250908060018154018082558091505060019003905f5260205f2090600202015f909190919091505f820151815f015f6101000a81548173ffffffffffffffffffffffffffffffffffffffff021916908373ffffffffffffffffffffffffffffffffffffffff1602179055506020820151816001015550507fa6b0e89a817b329eadd0871571da46cddb5d6edc8228b9edd3174a5879f66208863360405161154f92919061269d565b60405180910390a17f69df56ccc17214c6cb2a6814eee495bf5a9fd5fdbd1e12392cdfbe549bccf25b866040516115869190612826565b60405180910390a18060200151816040015194509450505050915091565b606080835f805b60045f8473ffffffffffffffffffffffffffffffffffffffff1673ffffffffffffffffffffffffffffffffffffffff1681526020019081526020015f20805490508110156116b2573373ffffffffffffffffffffffffffffffffffffffff1660045f8573ffffffffffffffffffffffffffffffffffffffff1673ffffffffffffffffffffffffffffffffffffffff1681526020019081526020015f208281548110611659576116586126c4565b5b905f5260205f20015f9054906101000a900473ffffffffffffffffffffffffffffffffffffffff1673ffffffffffffffffffffffffffffffffffffffff16036116a557600191506116b2565b80806001019150506115ab565b50808061170b575060065f9054906101000a900473ffffffffffffffffffffffffffffffffffffffff1673ffffffffffffffffffffffffffffffffffffffff163373ffffffffffffffffffffffffffffffffffffffff16145b61174a576040517f08c379a000000000000000000000000000000000000000000000000000000000815260040161174190612b82565b60405180910390fd5b8460405160200161175b9190612bda565b6040516020818303038152906040528051906020012060055f8873ffffffffffffffffffffffffffffffffffffffff1673ffffffffffffffffffffffffffffffffffffffff1681526020019081526020015f206040516020016117be9190612c70565b6040516020818303038152906040528051906020012014611814576040517f08c379a000000000000000000000000000000000000000000000000000000000815260040161180b90612cd0565b60405180910390fd5b5f805f8873ffffffffffffffffffffffffffffffffffffffff1673ffffffffffffffffffffffffffffffffffffffff1681526020019081526020015f206040518060600160405290815f82015f9054906101000a900473ffffffffffffffffffffffffffffffffffffffff1673ffffffffffffffffffffffffffffffffffffffff1673ffffffffffffffffffffffffffffffffffffffff1681526020016001820180546118c0906127ac565b80601f01602080910402602001604051908101604052809291908181526020018280546118ec906127ac565b80156119375780601f1061190e57610100808354040283529160200191611937565b820191905f5260205f20905b81548152906001019060200180831161191a57829003601f168201915b50505050508152602001600282018054611950906127ac565b80601f016020809104026020016040519081016040528092919081815260200182805461197c906127ac565b80156119c75780601f1061199e576101008083540402835291602001916119c7565b820191905f5260205f20905b8154815290600101906020018083116119aa57829003601f168201915b505050505081525050905060015f8873ffffffffffffffffffffffffffffffffffffffff1673ffffffffffffffffffffffffffffffffffffffff1681526020019081526020015f2060405180604001604052803373ffffffffffffffffffffffffffffffffffffffff16815260200142815250908060018154018082558091505060019003905f5260205f2090600202015f909190919091505f820151815f015f6101000a81548173ffffffffffffffffffffffffffffffffffffffff021916908373ffffffffffffffffffffffffffffffffffffffff1602179055506020820151816001015550507fa6b0e89a817b329eadd0871571da46cddb5d6edc8228b9edd3174a5879f662088733604051611ae192919061269d565b60405180910390a180602001518160400151945094505050509250929050565b60065f9054906101000a900473ffffffffffffffffffffffffffffffffffffffff1673ffffffffffffffffffffffffffffffffffffffff163373ffffffffffffffffffffffffffffffffffffffff1614611b90576040517f08c379a0000000000000000000000000000000000000000000000000000000008152600401611b879061267f565b60405180910390fd5b5f805f8473ffffffffffffffffffffffffffffffffffffffff1673ffffffffffffffffffffffffffffffffffffffff1681526020019081526020015f206002018054611bdb906127ac565b80601f0160208091040260200160405190810160405280929190818152602001828054611c07906127ac565b8015611c525780601f10611c2957610100808354040283529160200191611c52565b820191905f5260205f20905b815481529060010190602001808311611c3557829003601f168201915b5050505050905060025f8473ffffffffffffffffffffffffffffffffffffffff1673ffffffffffffffffffffffffffffffffffffffff1681526020019081526020015f20604051806060016040528083815260200184815260200142815250908060018154018082558091505060019003905f5260205f2090600302015f909190919091505f820151815f019081611cea91906129ef565b506020820151816001019081611d0091906129ef565b50604082015181600201555050815f808573ffffffffffffffffffffffffffffffffffffffff1673ffffffffffffffffffffffffffffffffffffffff1681526020019081526020015f206002019081611d5991906129ef565b507f134ab6e5af4f525674b134b11010049ba3d922613f86b74169e0e506b6faabef8383604051611d8b929190612abe565b60405180910390a1505050565b60065f9054906101000a900473ffffffffffffffffffffffffffffffffffffffff1673ffffffffffffffffffffffffffffffffffffffff163373ffffffffffffffffffffffffffffffffffffffff1614611e27576040517f08c379a0000000000000000000000000000000000000000000000000000000008152600401611e1e9061267f565b60405180910390fd5b5f8142611e349190612d1b565b905060035f8573ffffffffffffffffffffffffffffffffffffffff1673ffffffffffffffffffffffffffffffffffffffff1681526020019081526020015f2060405180604001604052808573ffffffffffffffffffffffffffffffffffffffff16815260200183815250908060018154018082558091505060019003905f5260205f2090600202015f909190919091505f820151815f015f6101000a81548173ffffffffffffffffffffffffffffffffffffffff021916908373ffffffffffffffffffffffffffffffffffffffff1602179055506020820151816001015550507f2b42379838597c2783589ad0916ddc52ea245d36ebafa61aded63868021f944f8484604051611f4592919061269d565b60405180910390a150505050565b5f604051905090565b5f80fd5b5f80fd5b5f73ffffffffffffffffffffffffffffffffffffffff82169050919050565b5f611f8d82611f64565b9050919050565b611f9d81611f83565b8114611fa7575f80fd5b50565b5f81359050611fb881611f94565b92915050565b5f60208284031215611fd357611fd2611f5c565b5b5f611fe084828501611faa565b91505092915050565b5f81519050919050565b5f82825260208201905092915050565b5f819050602082019050919050565b61201b81611f83565b82525050565b5f819050919050565b61203381612021565b82525050565b604082015f82015161204d5f850182612012565b506020820151612060602085018261202a565b50505050565b5f6120718383612039565b60408301905092915050565b5f602082019050919050565b5f61209382611fe9565b61209d8185611ff3565b93506120a883612003565b805f5b838110156120d85781516120bf8882612066565b97506120ca8361207d565b9250506001810190506120ab565b5085935050505092915050565b5f6020820190508181035f8301526120fd8184612089565b905092915050565b5f81519050919050565b5f82825260208201905092915050565b8281835e5f83830152505050565b5f601f19601f8301169050919050565b5f61214782612105565b612151818561210f565b935061216181856020860161211f565b61216a8161212d565b840191505092915050565b5f6040820190508181035f83015261218d818561213d565b905081810360208301526121a1818461213d565b90509392505050565b5f80604083850312156121c0576121bf611f5c565b5b5f6121cd85828601611faa565b92505060206121de85828601611faa565b9150509250929050565b5f81519050919050565b5f82825260208201905092915050565b5f819050602082019050919050565b5f82825260208201905092915050565b5f61222b82612105565b6122358185612211565b935061224581856020860161211f565b61224e8161212d565b840191505092915050565b5f606083015f8301518482035f8601526122738282612221565b9150506020830151848203602086015261228d8282612221565b91505060408301516122a2604086018261202a565b508091505092915050565b5f6122b88383612259565b905092915050565b5f602082019050919050565b5f6122d6826121e8565b6122e081856121f2565b9350836020820285016122f285612202565b805f5b8581101561232d578484038952815161230e85826122ad565b9450612319836122c0565b925060208a019950506001810190506122f5565b50829750879550505050505092915050565b5f6020820190508181035f83015261235781846122cc565b905092915050565b61236881611f83565b82525050565b5f6020820190506123815f83018461235f565b92915050565b5f80fd5b5f80fd5b7f4e487b71000000000000000000000000000000000000000000000000000000005f52604160045260245ffd5b6123c58261212d565b810181811067ffffffffffffffff821117156123e4576123e361238f565b5b80604052505050565b5f6123f6611f53565b905061240282826123bc565b919050565b5f67ffffffffffffffff8211156124215761242061238f565b5b61242a8261212d565b9050602081019050919050565b828183375f83830152505050565b5f61245761245284612407565b6123ed565b9050828152602081018484840111156124735761247261238b565b5b61247e848285612437565b509392505050565b5f82601f83011261249a57612499612387565b5b81356124aa848260208601612445565b91505092915050565b5f80604083850312156124c9576124c8611f5c565b5b5f6124d685828601611faa565b925050602083013567ffffffffffffffff8111156124f7576124f6611f60565b5b61250385828601612486565b9150509250929050565b5f805f6060848603121561252457612523611f5c565b5b5f61253186828701611faa565b935050602084013567ffffffffffffffff81111561255257612551611f60565b5b61255e86828701612486565b925050604084013567ffffffffffffffff81111561257f5761257e611f60565b5b61258b86828701612486565b9150509250925092565b61259e81612021565b81146125a8575f80fd5b50565b5f813590506125b981612595565b92915050565b5f805f606084860312156125d6576125d5611f5c565b5b5f6125e386828701611faa565b93505060206125f486828701611faa565b9250506040612605868287016125ab565b9150509250925092565b7f4170656e6173206f2061646d20706f64652065786563757461722065737461205f8201527f66756e63616f2e00000000000000000000000000000000000000000000000000602082015250565b5f61266960278361210f565b91506126748261260f565b604082019050919050565b5f6020820190508181035f8301526126968161265d565b9050919050565b5f6040820190506126b05f83018561235f565b6126bd602083018461235f565b9392505050565b7f4e487b71000000000000000000000000000000000000000000000000000000005f52603260045260245ffd5b7f45726f6f3a2041636573736f20657870697261646f206f75206e616f206175745f8201527f6f72697a61646f2e000000000000000000000000000000000000000000000000602082015250565b5f61274b60288361210f565b9150612756826126f1565b604082019050919050565b5f6020820190508181035f8301526127788161273f565b9050919050565b7f4e487b71000000000000000000000000000000000000000000000000000000005f52602260045260245ffd5b5f60028204905060018216806127c357607f821691505b6020821081036127d6576127d561277f565b5b50919050565b7f53657573206461646f7320666f72616d20616365737361646f732e00000000005f82015250565b5f612810601b8361210f565b915061281b826127dc565b602082019050919050565b5f6040820190506128395f83018461235f565b818103602083015261284a81612804565b905092915050565b5f819050815f5260205f209050919050565b5f6020601f8301049050919050565b5f82821b905092915050565b5f600883026128ae7fffffffffffffffffffffffffffffffffffffffffffffffffffffffffffffffff82612873565b6128b88683612873565b95508019841693508086168417925050509392505050565b5f819050919050565b5f6128f36128ee6128e984612021565b6128d0565b612021565b9050919050565b5f819050919050565b61290c836128d9565b612920612918826128fa565b84845461287f565b825550505050565b5f90565b612934612928565b61293f818484612903565b505050565b5b81811015612962576129575f8261292c565b600181019050612945565b5050565b601f8211156129a75761297881612852565b61298184612864565b81016020851015612990578190505b6129a461299c85612864565b830182612944565b50505b505050565b5f82821c905092915050565b5f6129c75f19846008026129ac565b1980831691505092915050565b5f6129df83836129b8565b9150826002028217905092915050565b6129f882612105565b67ffffffffffffffff811115612a1157612a1061238f565b5b612a1b82546127ac565b612a26828285612966565b5f60209050601f831160018114612a57575f8415612a45578287015190505b612a4f85826129d4565b865550612ab6565b601f198416612a6586612852565b5f5b82811015612a8c57848901518255600182019150602085019450602081019050612a67565b86831015612aa95784890151612aa5601f8916826129b8565b8355505b6001600288020188555050505b505050505050565b5f604082019050612ad15f83018561235f565b8181036020830152612ae3818461213d565b90509392505050565b7f41636573736f206e656761646f2e20566f6365206e616f2065737461206175745f8201527f6f72697a61646f20612061636573736172206f73206461646f7320646573746560208201527f2070616369656e74652e00000000000000000000000000000000000000000000604082015250565b5f612b6c604a8361210f565b9150612b7782612aec565b606082019050919050565b5f6020820190508181035f830152612b9981612b60565b9050919050565b5f81905092915050565b5f612bb482612105565b612bbe8185612ba0565b9350612bce81856020860161211f565b80840191505092915050565b5f612be58284612baa565b915081905092915050565b5f8154612bfc816127ac565b612c068186612ba0565b9450600182165f8114612c205760018114612c3557612c67565b60ff1983168652811515820286019350612c67565b612c3e85612852565b5f5b83811015612c5f57815481890152600182019150602081019050612c40565b838801955050505b50505092915050565b5f612c7b8284612bf0565b915081905092915050565b7f53656e686120696e76616c6964612e00000000000000000000000000000000005f82015250565b5f612cba600f8361210f565b9150612cc582612c86565b602082019050919050565b5f6020820190508181035f830152612ce781612cae565b9050919050565b7f4e487b71000000000000000000000000000000000000000000000000000000005f52601160045260245ffd5b5f612d2582612021565b9150612d3083612021565b9250828201905080821115612d4857612d47612cee565b5b9291505056fea26469706673582212203c2cd1f30772b49eb3ec84dfe3ee72b41058136f7b99fb1cfc826e0fde70806964736f6c634300081a0033",
			"opcodes": "PUSH1 0x80 PUSH1 0x40 MSTORE CALLVALUE DUP1 ISZERO PUSH1 0xE JUMPI PUSH0 DUP1 REVERT JUMPDEST POP CALLER PUSH1 0x6 PUSH0 PUSH2 0x100 EXP DUP2 SLOAD DUP2 PUSH20 0xFFFFFFFFFFFFFFFFFFFFFFFFFFFFFFFFFFFFFFFF MUL NOT AND SWAP1 DUP4 PUSH20 0xFFFFFFFFFFFFFFFFFFFFFFFFFFFFFFFFFFFFFFFF AND MUL OR SWAP1 SSTORE POP PUSH2 0x2D84 DUP1 PUSH2 0x5C PUSH0 CODECOPY PUSH0 RETURN INVALID PUSH1 0x80 PUSH1 0x40 MSTORE CALLVALUE DUP1 ISZERO PUSH2 0xF JUMPI PUSH0 DUP1 REVERT JUMPDEST POP PUSH1 0x4 CALLDATASIZE LT PUSH2 0xB2 JUMPI PUSH0 CALLDATALOAD PUSH1 0xE0 SHR DUP1 PUSH4 0x7DBB16E4 GT PUSH2 0x6F JUMPI DUP1 PUSH4 0x7DBB16E4 EQ PUSH2 0x19D JUMPI DUP1 PUSH4 0x8070D783 EQ PUSH2 0x1B9 JUMPI DUP1 PUSH4 0x84F78C84 EQ PUSH2 0x1D5 JUMPI DUP1 PUSH4 0xA0B832E8 EQ PUSH2 0x206 JUMPI DUP1 PUSH4 0xC05754E3 EQ PUSH2 0x237 JUMPI DUP1 PUSH4 0xD2212084 EQ PUSH2 0x253 JUMPI PUSH2 0xB2 JUMP JUMPDEST DUP1 PUSH4 0xB6532CA EQ PUSH2 0xB6 JUMPI DUP1 PUSH4 0x16B26304 EQ PUSH2 0xD2 JUMPI DUP1 PUSH4 0x50C5DCFE EQ PUSH2 0x102 JUMPI DUP1 PUSH4 0x56B310F7 EQ PUSH2 0x133 JUMPI DUP1 PUSH4 0x6AF851C7 EQ PUSH2 0x14F JUMPI DUP1 PUSH4 0x7062B97D EQ PUSH2 0x17F JUMPI JUMPDEST PUSH0 DUP1 REVERT JUMPDEST PUSH2 0xD0 PUSH1 0x4 DUP1 CALLDATASIZE SUB DUP2 ADD SWAP1 PUSH2 0xCB SWAP2 SWAP1 PUSH2 0x1FBE JUMP JUMPDEST PUSH2 0x26F JUMP JUMPDEST STOP JUMPDEST PUSH2 0xEC PUSH1 0x4 DUP1 CALLDATASIZE SUB DUP2 ADD SWAP1 PUSH2 0xE7 SWAP2 SWAP1 PUSH2 0x1FBE JUMP JUMPDEST PUSH2 0x3B6 JUMP JUMPDEST PUSH1 0x40 MLOAD PUSH2 0xF9 SWAP2 SWAP1 PUSH2 0x20E5 JUMP JUMPDEST PUSH1 0x40 MLOAD DUP1 SWAP2 SUB SWAP1 RETURN JUMPDEST PUSH2 0x11C PUSH1 0x4 DUP1 CALLDATASIZE SUB DUP2 ADD SWAP1 PUSH2 0x117 SWAP2 SWAP1 PUSH2 0x1FBE JUMP JUMPDEST PUSH2 0x53C JUMP JUMPDEST PUSH1 0x40 MLOAD PUSH2 0x12A SWAP3 SWAP2 SWAP1 PUSH2 0x2175 JUMP JUMPDEST PUSH1 0x40 MLOAD DUP1 SWAP2 SUB SWAP1 RETURN JUMPDEST PUSH2 0x14D PUSH1 0x4 DUP1 CALLDATASIZE SUB DUP2 ADD SWAP1 PUSH2 0x148 SWAP2 SWAP1 PUSH2 0x21AA JUMP JUMPDEST PUSH2 0xA74 JUMP JUMPDEST STOP JUMPDEST PUSH2 0x169 PUSH1 0x4 DUP1 CALLDATASIZE SUB DUP2 ADD SWAP1 PUSH2 0x164 SWAP2 SWAP1 PUSH2 0x1FBE JUMP JUMPDEST PUSH2 0xBDB JUMP JUMPDEST PUSH1 0x40 MLOAD PUSH2 0x176 SWAP2 SWAP1 PUSH2 0x233F JUMP JUMPDEST PUSH1 0x40 MLOAD DUP1 SWAP2 SUB SWAP1 RETURN JUMPDEST PUSH2 0x187 PUSH2 0xE2C JUMP JUMPDEST PUSH1 0x40 MLOAD PUSH2 0x194 SWAP2 SWAP1 PUSH2 0x236E JUMP JUMPDEST PUSH1 0x40 MLOAD DUP1 SWAP2 SUB SWAP1 RETURN JUMPDEST PUSH2 0x1B7 PUSH1 0x4 DUP1 CALLDATASIZE SUB DUP2 ADD SWAP1 PUSH2 0x1B2 SWAP2 SWAP1 PUSH2 0x24B3 JUMP JUMPDEST PUSH2 0xE51 JUMP JUMPDEST STOP JUMPDEST PUSH2 0x1D3 PUSH1 0x4 DUP1 CALLDATASIZE SUB DUP2 ADD SWAP1 PUSH2 0x1CE SWAP2 SWAP1 PUSH2 0x250D JUMP JUMPDEST PUSH2 0xF2F JUMP JUMPDEST STOP JUMPDEST PUSH2 0x1EF PUSH1 0x4 DUP1 CALLDATASIZE SUB DUP2 ADD SWAP1 PUSH2 0x1EA SWAP2 SWAP1 PUSH2 0x1FBE JUMP JUMPDEST PUSH2 0x10DC JUMP JUMPDEST PUSH1 0x40 MLOAD PUSH2 0x1FD SWAP3 SWAP2 SWAP1 PUSH2 0x2175 JUMP JUMPDEST PUSH1 0x40 MLOAD DUP1 SWAP2 SUB SWAP1 RETURN JUMPDEST PUSH2 0x220 PUSH1 0x4 DUP1 CALLDATASIZE SUB DUP2 ADD SWAP1 PUSH2 0x21B SWAP2 SWAP1 PUSH2 0x24B3 JUMP JUMPDEST PUSH2 0x15A4 JUMP JUMPDEST PUSH1 0x40 MLOAD PUSH2 0x22E SWAP3 SWAP2 SWAP1 PUSH2 0x2175 JUMP JUMPDEST PUSH1 0x40 MLOAD DUP1 SWAP2 SUB SWAP1 RETURN JUMPDEST PUSH2 0x251 PUSH1 0x4 DUP1 CALLDATASIZE SUB DUP2 ADD SWAP1 PUSH2 0x24C SWAP2 SWAP1 PUSH2 0x24B3 JUMP JUMPDEST PUSH2 0x1B01 JUMP JUMPDEST STOP JUMPDEST PUSH2 0x26D PUSH1 0x4 DUP1 CALLDATASIZE SUB DUP2 ADD SWAP1 PUSH2 0x268 SWAP2 SWAP1 PUSH2 0x25BF JUMP JUMPDEST PUSH2 0x1D98 JUMP JUMPDEST STOP JUMPDEST PUSH1 0x6 PUSH0 SWAP1 SLOAD SWAP1 PUSH2 0x100 EXP SWAP1 DIV PUSH20 0xFFFFFFFFFFFFFFFFFFFFFFFFFFFFFFFFFFFFFFFF AND PUSH20 0xFFFFFFFFFFFFFFFFFFFFFFFFFFFFFFFFFFFFFFFF AND CALLER PUSH20 0xFFFFFFFFFFFFFFFFFFFFFFFFFFFFFFFFFFFFFFFF AND EQ PUSH2 0x2FE JUMPI PUSH1 0x40 MLOAD PUSH32 0x8C379A000000000000000000000000000000000000000000000000000000000 DUP2 MSTORE PUSH1 0x4 ADD PUSH2 0x2F5 SWAP1 PUSH2 0x267F JUMP JUMPDEST PUSH1 0x40 MLOAD DUP1 SWAP2 SUB SWAP1 REVERT JUMPDEST PUSH0 DUP1 PUSH0 DUP4 PUSH20 0xFFFFFFFFFFFFFFFFFFFFFFFFFFFFFFFFFFFFFFFF AND PUSH20 0xFFFFFFFFFFFFFFFFFFFFFFFFFFFFFFFFFFFFFFFF AND DUP2 MSTORE PUSH1 0x20 ADD SWAP1 DUP2 MSTORE PUSH1 0x20 ADD PUSH0 KECCAK256 PUSH0 ADD PUSH0 PUSH2 0x100 EXP DUP2 SLOAD DUP2 PUSH20 0xFFFFFFFFFFFFFFFFFFFFFFFFFFFFFFFFFFFFFFFF MUL NOT AND SWAP1 DUP4 PUSH20 0xFFFFFFFFFFFFFFFFFFFFFFFFFFFFFFFFFFFFFFFF AND MUL OR SWAP1 SSTORE POP PUSH32 0x2B42379838597C2783589AD0916DDC52EA245D36EBAFA61ADED63868021F944F DUP2 PUSH0 PUSH1 0x40 MLOAD PUSH2 0x3AB SWAP3 SWAP2 SWAP1 PUSH2 0x269D JUMP JUMPDEST PUSH1 0x40 MLOAD DUP1 SWAP2 SUB SWAP1 LOG1 POP JUMP JUMPDEST PUSH1 0x60 PUSH1 0x6 PUSH0 SWAP1 SLOAD SWAP1 PUSH2 0x100 EXP SWAP1 DIV PUSH20 0xFFFFFFFFFFFFFFFFFFFFFFFFFFFFFFFFFFFFFFFF AND PUSH20 0xFFFFFFFFFFFFFFFFFFFFFFFFFFFFFFFFFFFFFFFF AND CALLER PUSH20 0xFFFFFFFFFFFFFFFFFFFFFFFFFFFFFFFFFFFFFFFF AND EQ PUSH2 0x447 JUMPI PUSH1 0x40 MLOAD PUSH32 0x8C379A000000000000000000000000000000000000000000000000000000000 DUP2 MSTORE PUSH1 0x4 ADD PUSH2 0x43E SWAP1 PUSH2 0x267F JUMP JUMPDEST PUSH1 0x40 MLOAD DUP1 SWAP2 SUB SWAP1 REVERT JUMPDEST PUSH1 0x1 PUSH0 DUP4 PUSH20 0xFFFFFFFFFFFFFFFFFFFFFFFFFFFFFFFFFFFFFFFF AND PUSH20 0xFFFFFFFFFFFFFFFFFFFFFFFFFFFFFFFFFFFFFFFF AND DUP2 MSTORE PUSH1 0x20 ADD SWAP1 DUP2 MSTORE PUSH1 0x20 ADD PUSH0 KECCAK256 DUP1 SLOAD DUP1 PUSH1 0x20 MUL PUSH1 0x20 ADD PUSH1 0x40 MLOAD SWAP1 DUP2 ADD PUSH1 0x40 MSTORE DUP1 SWAP3 SWAP2 SWAP1 DUP2 DUP2 MSTORE PUSH1 0x20 ADD PUSH0 SWAP1 JUMPDEST DUP3 DUP3 LT ISZERO PUSH2 0x531 JUMPI DUP4 DUP3 SWAP1 PUSH0 MSTORE PUSH1 0x20 PUSH0 KECCAK256 SWAP1 PUSH1 0x2 MUL ADD PUSH1 0x40 MLOAD DUP1 PUSH1 0x40 ADD PUSH1 0x40 MSTORE SWAP1 DUP2 PUSH0 DUP3 ADD PUSH0 SWAP1 SLOAD SWAP1 PUSH2 0x100 EXP SWAP1 DIV PUSH20 0xFFFFFFFFFFFFFFFFFFFFFFFFFFFFFFFFFFFFFFFF AND PUSH20 0xFFFFFFFFFFFFFFFFFFFFFFFFFFFFFFFFFFFFFFFF AND PUSH20 0xFFFFFFFFFFFFFFFFFFFFFFFFFFFFFFFFFFFFFFFF AND DUP2 MSTORE PUSH1 0x20 ADD PUSH1 0x1 DUP3 ADD SLOAD DUP2 MSTORE POP POP DUP2 MSTORE PUSH1 0x20 ADD SWAP1 PUSH1 0x1 ADD SWAP1 PUSH2 0x4A3 JUMP JUMPDEST POP POP POP POP SWAP1 POP SWAP2 SWAP1 POP JUMP JUMPDEST PUSH1 0x60 DUP1 DUP3 PUSH0 DUP1 JUMPDEST PUSH1 0x3 PUSH0 DUP5 PUSH20 0xFFFFFFFFFFFFFFFFFFFFFFFFFFFFFFFFFFFFFFFF AND PUSH20 0xFFFFFFFFFFFFFFFFFFFFFFFFFFFFFFFFFFFFFFFF AND DUP2 MSTORE PUSH1 0x20 ADD SWAP1 DUP2 MSTORE PUSH1 0x20 ADD PUSH0 KECCAK256 DUP1 SLOAD SWAP1 POP DUP2 LT ISZERO PUSH2 0x6BA JUMPI CALLER PUSH20 0xFFFFFFFFFFFFFFFFFFFFFFFFFFFFFFFFFFFFFFFF AND PUSH1 0x3 PUSH0 DUP6 PUSH20 0xFFFFFFFFFFFFFFFFFFFFFFFFFFFFFFFFFFFFFFFF AND PUSH20 0xFFFFFFFFFFFFFFFFFFFFFFFFFFFFFFFFFFFFFFFF AND DUP2 MSTORE PUSH1 0x20 ADD SWAP1 DUP2 MSTORE PUSH1 0x20 ADD PUSH0 KECCAK256 DUP3 DUP2 SLOAD DUP2 LT PUSH2 0x5F1 JUMPI PUSH2 0x5F0 PUSH2 0x26C4 JUMP JUMPDEST JUMPDEST SWAP1 PUSH0 MSTORE PUSH1 0x20 PUSH0 KECCAK256 SWAP1 PUSH1 0x2 MUL ADD PUSH0 ADD PUSH0 SWAP1 SLOAD SWAP1 PUSH2 0x100 EXP SWAP1 DIV PUSH20 0xFFFFFFFFFFFFFFFFFFFFFFFFFFFFFFFFFFFFFFFF AND PUSH20 0xFFFFFFFFFFFFFFFFFFFFFFFFFFFFFFFFFFFFFFFF AND EQ DUP1 ISZERO PUSH2 0x69F JUMPI POP TIMESTAMP PUSH1 0x3 PUSH0 DUP6 PUSH20 0xFFFFFFFFFFFFFFFFFFFFFFFFFFFFFFFFFFFFFFFF AND PUSH20 0xFFFFFFFFFFFFFFFFFFFFFFFFFFFFFFFFFFFFFFFF AND DUP2 MSTORE PUSH1 0x20 ADD SWAP1 DUP2 MSTORE PUSH1 0x20 ADD PUSH0 KECCAK256 DUP3 DUP2 SLOAD DUP2 LT PUSH2 0x68D JUMPI PUSH2 0x68C PUSH2 0x26C4 JUMP JUMPDEST JUMPDEST SWAP1 PUSH0 MSTORE PUSH1 0x20 PUSH0 KECCAK256 SWAP1 PUSH1 0x2 MUL ADD PUSH1 0x1 ADD SLOAD GT JUMPDEST ISZERO PUSH2 0x6AD JUMPI PUSH1 0x1 SWAP2 POP PUSH2 0x6BA JUMP JUMPDEST DUP1 DUP1 PUSH1 0x1 ADD SWAP2 POP POP PUSH2 0x543 JUMP JUMPDEST POP DUP1 DUP1 PUSH2 0x713 JUMPI POP PUSH1 0x6 PUSH0 SWAP1 SLOAD SWAP1 PUSH2 0x100 EXP SWAP1 DIV PUSH20 0xFFFFFFFFFFFFFFFFFFFFFFFFFFFFFFFFFFFFFFFF AND PUSH20 0xFFFFFFFFFFFFFFFFFFFFFFFFFFFFFFFFFFFFFFFF AND CALLER PUSH20 0xFFFFFFFFFFFFFFFFFFFFFFFFFFFFFFFFFFFFFFFF AND EQ JUMPDEST PUSH2 0x752 JUMPI PUSH1 0x40 MLOAD PUSH32 0x8C379A000000000000000000000000000000000000000000000000000000000 DUP2 MSTORE PUSH1 0x4 ADD PUSH2 0x749 SWAP1 PUSH2 0x2761 JUMP JUMPDEST PUSH1 0x40 MLOAD DUP1 SWAP2 SUB SWAP1 REVERT JUMPDEST PUSH0 DUP1 PUSH0 DUP8 PUSH20 0xFFFFFFFFFFFFFFFFFFFFFFFFFFFFFFFFFFFFFFFF AND PUSH20 0xFFFFFFFFFFFFFFFFFFFFFFFFFFFFFFFFFFFFFFFF AND DUP2 MSTORE PUSH1 0x20 ADD SWAP1 DUP2 MSTORE PUSH1 0x20 ADD PUSH0 KECCAK256 PUSH1 0x40 MLOAD DUP1 PUSH1 0x60 ADD PUSH1 0x40 MSTORE SWAP1 DUP2 PUSH0 DUP3 ADD PUSH0 SWAP1 SLOAD SWAP1 PUSH2 0x100 EXP SWAP1 DIV PUSH20 0xFFFFFFFFFFFFFFFFFFFFFFFFFFFFFFFFFFFFFFFF AND PUSH20 0xFFFFFFFFFFFFFFFFFFFFFFFFFFFFFFFFFFFFFFFF AND PUSH20 0xFFFFFFFFFFFFFFFFFFFFFFFFFFFFFFFFFFFFFFFF AND DUP2 MSTORE PUSH1 0x20 ADD PUSH1 0x1 DUP3 ADD DUP1 SLOAD PUSH2 0x7FE SWAP1 PUSH2 0x27AC JUMP JUMPDEST DUP1 PUSH1 0x1F ADD PUSH1 0x20 DUP1 SWAP2 DIV MUL PUSH1 0x20 ADD PUSH1 0x40 MLOAD SWAP1 DUP2 ADD PUSH1 0x40 MSTORE DUP1 SWAP3 SWAP2 SWAP1 DUP2 DUP2 MSTORE PUSH1 0x20 ADD DUP3 DUP1 SLOAD PUSH2 0x82A SWAP1 PUSH2 0x27AC JUMP JUMPDEST DUP1 ISZERO PUSH2 0x875 JUMPI DUP1 PUSH1 0x1F LT PUSH2 0x84C JUMPI PUSH2 0x100 DUP1 DUP4 SLOAD DIV MUL DUP4 MSTORE SWAP2 PUSH1 0x20 ADD SWAP2 PUSH2 0x875 JUMP JUMPDEST DUP3 ADD SWAP2 SWAP1 PUSH0 MSTORE PUSH1 0x20 PUSH0 KECCAK256 SWAP1 JUMPDEST DUP2 SLOAD DUP2 MSTORE SWAP1 PUSH1 0x1 ADD SWAP1 PUSH1 0x20 ADD DUP1 DUP4 GT PUSH2 0x858 JUMPI DUP3 SWAP1 SUB PUSH1 0x1F AND DUP3 ADD SWAP2 JUMPDEST POP POP POP POP POP DUP2 MSTORE PUSH1 0x20 ADD PUSH1 0x2 DUP3 ADD DUP1 SLOAD PUSH2 0x88E SWAP1 PUSH2 0x27AC JUMP JUMPDEST DUP1 PUSH1 0x1F ADD PUSH1 0x20 DUP1 SWAP2 DIV MUL PUSH1 0x20 ADD PUSH1 0x40 MLOAD SWAP1 DUP2 ADD PUSH1 0x40 MSTORE DUP1 SWAP3 SWAP2 SWAP1 DUP2 DUP2 MSTORE PUSH1 0x20 ADD DUP3 DUP1 SLOAD PUSH2 0x8BA SWAP1 PUSH2 0x27AC JUMP JUMPDEST DUP1 ISZERO PUSH2 0x905 JUMPI DUP1 PUSH1 0x1F LT PUSH2 0x8DC JUMPI PUSH2 0x100 DUP1 DUP4 SLOAD DIV MUL DUP4 MSTORE SWAP2 PUSH1 0x20 ADD SWAP2 PUSH2 0x905 JUMP JUMPDEST DUP3 ADD SWAP2 SWAP1 PUSH0 MSTORE PUSH1 0x20 PUSH0 KECCAK256 SWAP1 JUMPDEST DUP2 SLOAD DUP2 MSTORE SWAP1 PUSH1 0x1 ADD SWAP1 PUSH1 0x20 ADD DUP1 DUP4 GT PUSH2 0x8E8 JUMPI DUP3 SWAP1 SUB PUSH1 0x1F AND DUP3 ADD SWAP2 JUMPDEST POP POP POP POP POP DUP2 MSTORE POP POP SWAP1 POP PUSH1 0x1 PUSH0 DUP8 PUSH20 0xFFFFFFFFFFFFFFFFFFFFFFFFFFFFFFFFFFFFFFFF AND PUSH20 0xFFFFFFFFFFFFFFFFFFFFFFFFFFFFFFFFFFFFFFFF AND DUP2 MSTORE PUSH1 0x20 ADD SWAP1 DUP2 MSTORE PUSH1 0x20 ADD PUSH0 KECCAK256 PUSH1 0x40 MLOAD DUP1 PUSH1 0x40 ADD PUSH1 0x40 MSTORE DUP1 CALLER PUSH20 0xFFFFFFFFFFFFFFFFFFFFFFFFFFFFFFFFFFFFFFFF AND DUP2 MSTORE PUSH1 0x20 ADD TIMESTAMP DUP2 MSTORE POP SWAP1 DUP1 PUSH1 0x1 DUP2 SLOAD ADD DUP1 DUP3 SSTORE DUP1 SWAP2 POP POP PUSH1 0x1 SWAP1 SUB SWAP1 PUSH0 MSTORE PUSH1 0x20 PUSH0 KECCAK256 SWAP1 PUSH1 0x2 MUL ADD PUSH0 SWAP1 SWAP2 SWAP1 SWAP2 SWAP1 SWAP2 POP PUSH0 DUP3 ADD MLOAD DUP2 PUSH0 ADD PUSH0 PUSH2 0x100 EXP DUP2 SLOAD DUP2 PUSH20 0xFFFFFFFFFFFFFFFFFFFFFFFFFFFFFFFFFFFFFFFF MUL NOT AND SWAP1 DUP4 PUSH20 0xFFFFFFFFFFFFFFFFFFFFFFFFFFFFFFFFFFFFFFFF AND MUL OR SWAP1 SSTORE POP PUSH1 0x20 DUP3 ADD MLOAD DUP2 PUSH1 0x1 ADD SSTORE POP POP PUSH32 0xA6B0E89A817B329EADD0871571DA46CDDB5D6EDC8228B9EDD3174A5879F66208 DUP7 CALLER PUSH1 0x40 MLOAD PUSH2 0xA1F SWAP3 SWAP2 SWAP1 PUSH2 0x269D JUMP JUMPDEST PUSH1 0x40 MLOAD DUP1 SWAP2 SUB SWAP1 LOG1 PUSH32 0x69DF56CCC17214C6CB2A6814EEE495BF5A9FD5FDBD1E12392CDFBE549BCCF25B DUP7 PUSH1 0x40 MLOAD PUSH2 0xA56 SWAP2 SWAP1 PUSH2 0x2826 JUMP JUMPDEST PUSH1 0x40 MLOAD DUP1 SWAP2 SUB SWAP1 LOG1 DUP1 PUSH1 0x20 ADD MLOAD DUP2 PUSH1 0x40 ADD MLOAD SWAP5 POP SWAP5 POP POP POP POP SWAP2 POP SWAP2 JUMP JUMPDEST PUSH1 0x6 PUSH0 SWAP1 SLOAD SWAP1 PUSH2 0x100 EXP SWAP1 DIV PUSH20 0xFFFFFFFFFFFFFFFFFFFFFFFFFFFFFFFFFFFFFFFF AND PUSH20 0xFFFFFFFFFFFFFFFFFFFFFFFFFFFFFFFFFFFFFFFF AND CALLER PUSH20 0xFFFFFFFFFFFFFFFFFFFFFFFFFFFFFFFFFFFFFFFF AND EQ PUSH2 0xB03 JUMPI PUSH1 0x40 MLOAD PUSH32 0x8C379A000000000000000000000000000000000000000000000000000000000 DUP2 MSTORE PUSH1 0x4 ADD PUSH2 0xAFA SWAP1 PUSH2 0x267F JUMP JUMPDEST PUSH1 0x40 MLOAD DUP1 SWAP2 SUB SWAP1 REVERT JUMPDEST PUSH1 0x4 PUSH0 DUP4 PUSH20 0xFFFFFFFFFFFFFFFFFFFFFFFFFFFFFFFFFFFFFFFF AND PUSH20 0xFFFFFFFFFFFFFFFFFFFFFFFFFFFFFFFFFFFFFFFF AND DUP2 MSTORE PUSH1 0x20 ADD SWAP1 DUP2 MSTORE PUSH1 0x20 ADD PUSH0 KECCAK256 DUP2 SWAP1 DUP1 PUSH1 0x1 DUP2 SLOAD ADD DUP1 DUP3 SSTORE DUP1 SWAP2 POP POP PUSH1 0x1 SWAP1 SUB SWAP1 PUSH0 MSTORE PUSH1 0x20 PUSH0 KECCAK256 ADD PUSH0 SWAP1 SWAP2 SWAP1 SWAP2 SWAP1 SWAP2 PUSH2 0x100 EXP DUP2 SLOAD DUP2 PUSH20 0xFFFFFFFFFFFFFFFFFFFFFFFFFFFFFFFFFFFFFFFF MUL NOT AND SWAP1 DUP4 PUSH20 0xFFFFFFFFFFFFFFFFFFFFFFFFFFFFFFFFFFFFFFFF AND MUL OR SWAP1 SSTORE POP PUSH32 0x2B42379838597C2783589AD0916DDC52EA245D36EBAFA61ADED63868021F944F DUP3 DUP3 PUSH1 0x40 MLOAD PUSH2 0xBCF SWAP3 SWAP2 SWAP1 PUSH2 0x269D JUMP JUMPDEST PUSH1 0x40 MLOAD DUP1 SWAP2 SUB SWAP1 LOG1 POP POP JUMP JUMPDEST PUSH1 0x60 PUSH1 0x6 PUSH0 SWAP1 SLOAD SWAP1 PUSH2 0x100 EXP SWAP1 DIV PUSH20 0xFFFFFFFFFFFFFFFFFFFFFFFFFFFFFFFFFFFFFFFF AND PUSH20 0xFFFFFFFFFFFFFFFFFFFFFFFFFFFFFFFFFFFFFFFF AND CALLER PUSH20 0xFFFFFFFFFFFFFFFFFFFFFFFFFFFFFFFFFFFFFFFF AND EQ PUSH2 0xC6C JUMPI PUSH1 0x40 MLOAD PUSH32 0x8C379A000000000000000000000000000000000000000000000000000000000 DUP2 MSTORE PUSH1 0x4 ADD PUSH2 0xC63 SWAP1 PUSH2 0x267F JUMP JUMPDEST PUSH1 0x40 MLOAD DUP1 SWAP2 SUB SWAP1 REVERT JUMPDEST PUSH1 0x2 PUSH0 DUP4 PUSH20 0xFFFFFFFFFFFFFFFFFFFFFFFFFFFFFFFFFFFFFFFF AND PUSH20 0xFFFFFFFFFFFFFFFFFFFFFFFFFFFFFFFFFFFFFFFF AND DUP2 MSTORE PUSH1 0x20 ADD SWAP1 DUP2 MSTORE PUSH1 0x20 ADD PUSH0 KECCAK256 DUP1 SLOAD DUP1 PUSH1 0x20 MUL PUSH1 0x20 ADD PUSH1 0x40 MLOAD SWAP1 DUP2 ADD PUSH1 0x40 MSTORE DUP1 SWAP3 SWAP2 SWAP1 DUP2 DUP2 MSTORE PUSH1 0x20 ADD PUSH0 SWAP1 JUMPDEST DUP3 DUP3 LT ISZERO PUSH2 0xE21 JUMPI DUP4 DUP3 SWAP1 PUSH0 MSTORE PUSH1 0x20 PUSH0 KECCAK256 SWAP1 PUSH1 0x3 MUL ADD PUSH1 0x40 MLOAD DUP1 PUSH1 0x60 ADD PUSH1 0x40 MSTORE SWAP1 DUP2 PUSH0 DUP3 ADD DUP1 SLOAD PUSH2 0xCF8 SWAP1 PUSH2 0x27AC JUMP JUMPDEST DUP1 PUSH1 0x1F ADD PUSH1 0x20 DUP1 SWAP2 DIV MUL PUSH1 0x20 ADD PUSH1 0x40 MLOAD SWAP1 DUP2 ADD PUSH1 0x40 MSTORE DUP1 SWAP3 SWAP2 SWAP1 DUP2 DUP2 MSTORE PUSH1 0x20 ADD DUP3 DUP1 SLOAD PUSH2 0xD24 SWAP1 PUSH2 0x27AC JUMP JUMPDEST DUP1 ISZERO PUSH2 0xD6F JUMPI DUP1 PUSH1 0x1F LT PUSH2 0xD46 JUMPI PUSH2 0x100 DUP1 DUP4 SLOAD DIV MUL DUP4 MSTORE SWAP2 PUSH1 0x20 ADD SWAP2 PUSH2 0xD6F JUMP JUMPDEST DUP3 ADD SWAP2 SWAP1 PUSH0 MSTORE PUSH1 0x20 PUSH0 KECCAK256 SWAP1 JUMPDEST DUP2 SLOAD DUP2 MSTORE SWAP1 PUSH1 0x1 ADD SWAP1 PUSH1 0x20 ADD DUP1 DUP4 GT PUSH2 0xD52 JUMPI DUP3 SWAP1 SUB PUSH1 0x1F AND DUP3 ADD SWAP2 JUMPDEST POP POP POP POP POP DUP2 MSTORE PUSH1 0x20 ADD PUSH1 0x1 DUP3 ADD DUP1 SLOAD PUSH2 0xD88 SWAP1 PUSH2 0x27AC JUMP JUMPDEST DUP1 PUSH1 0x1F ADD PUSH1 0x20 DUP1 SWAP2 DIV MUL PUSH1 0x20 ADD PUSH1 0x40 MLOAD SWAP1 DUP2 ADD PUSH1 0x40 MSTORE DUP1 SWAP3 SWAP2 SWAP1 DUP2 DUP2 MSTORE PUSH1 0x20 ADD DUP3 DUP1 SLOAD PUSH2 0xDB4 SWAP1 PUSH2 0x27AC JUMP JUMPDEST DUP1 ISZERO PUSH2 0xDFF JUMPI DUP1 PUSH1 0x1F LT PUSH2 0xDD6 JUMPI PUSH2 0x100 DUP1 DUP4 SLOAD DIV MUL DUP4 MSTORE SWAP2 PUSH1 0x20 ADD SWAP2 PUSH2 0xDFF JUMP JUMPDEST DUP3 ADD SWAP2 SWAP1 PUSH0 MSTORE PUSH1 0x20 PUSH0 KECCAK256 SWAP1 JUMPDEST DUP2 SLOAD DUP2 MSTORE SWAP1 PUSH1 0x1 ADD SWAP1 PUSH1 0x20 ADD DUP1 DUP4 GT PUSH2 0xDE2 JUMPI DUP3 SWAP1 SUB PUSH1 0x1F AND DUP3 ADD SWAP2 JUMPDEST POP POP POP POP POP DUP2 MSTORE PUSH1 0x20 ADD PUSH1 0x2 DUP3 ADD SLOAD DUP2 MSTORE POP POP DUP2 MSTORE PUSH1 0x20 ADD SWAP1 PUSH1 0x1 ADD SWAP1 PUSH2 0xCC8 JUMP JUMPDEST POP POP POP POP SWAP1 POP SWAP2 SWAP1 POP JUMP JUMPDEST PUSH1 0x6 PUSH0 SWAP1 SLOAD SWAP1 PUSH2 0x100 EXP SWAP1 DIV PUSH20 0xFFFFFFFFFFFFFFFFFFFFFFFFFFFFFFFFFFFFFFFF AND DUP2 JUMP JUMPDEST PUSH1 0x6 PUSH0 SWAP1 SLOAD SWAP1 PUSH2 0x100 EXP SWAP1 DIV PUSH20 0xFFFFFFFFFFFFFFFFFFFFFFFFFFFFFFFFFFFFFFFF AND PUSH20 0xFFFFFFFFFFFFFFFFFFFFFFFFFFFFFFFFFFFFFFFF AND CALLER PUSH20 0xFFFFFFFFFFFFFFFFFFFFFFFFFFFFFFFFFFFFFFFF AND EQ PUSH2 0xEE0 JUMPI PUSH1 0x40 MLOAD PUSH32 0x8C379A000000000000000000000000000000000000000000000000000000000 DUP2 MSTORE PUSH1 0x4 ADD PUSH2 0xED7 SWAP1 PUSH2 0x267F JUMP JUMPDEST PUSH1 0x40 MLOAD DUP1 SWAP2 SUB SWAP1 REVERT JUMPDEST DUP1 PUSH1 0x5 PUSH0 DUP5 PUSH20 0xFFFFFFFFFFFFFFFFFFFFFFFFFFFFFFFFFFFFFFFF AND PUSH20 0xFFFFFFFFFFFFFFFFFFFFFFFFFFFFFFFFFFFFFFFF AND DUP2 MSTORE PUSH1 0x20 ADD SWAP1 DUP2 MSTORE PUSH1 0x20 ADD PUSH0 KECCAK256 SWAP1 DUP2 PUSH2 0xF2A SWAP2 SWAP1 PUSH2 0x29EF JUMP JUMPDEST POP POP POP JUMP JUMPDEST PUSH1 0x6 PUSH0 SWAP1 SLOAD SWAP1 PUSH2 0x100 EXP SWAP1 DIV PUSH20 0xFFFFFFFFFFFFFFFFFFFFFFFFFFFFFFFFFFFFFFFF AND PUSH20 0xFFFFFFFFFFFFFFFFFFFFFFFFFFFFFFFFFFFFFFFF AND CALLER PUSH20 0xFFFFFFFFFFFFFFFFFFFFFFFFFFFFFFFFFFFFFFFF AND EQ PUSH2 0xFBE JUMPI PUSH1 0x40 MLOAD PUSH32 0x8C379A000000000000000000000000000000000000000000000000000000000 DUP2 MSTORE PUSH1 0x4 ADD PUSH2 0xFB5 SWAP1 PUSH2 0x267F JUMP JUMPDEST PUSH1 0x40 MLOAD DUP1 SWAP2 SUB SWAP1 REVERT JUMPDEST PUSH1 0x40 MLOAD DUP1 PUSH1 0x60 ADD PUSH1 0x40 MSTORE DUP1 PUSH0 PUSH20 0xFFFFFFFFFFFFFFFFFFFFFFFFFFFFFFFFFFFFFFFF AND DUP2 MSTORE PUSH1 0x20 ADD DUP4 DUP2 MSTORE PUSH1 0x20 ADD DUP3 DUP2 MSTORE POP PUSH0 DUP1 DUP6 PUSH20 0xFFFFFFFFFFFFFFFFFFFFFFFFFFFFFFFFFFFFFFFF AND PUSH20 0xFFFFFFFFFFFFFFFFFFFFFFFFFFFFFFFFFFFFFFFF AND DUP2 MSTORE PUSH1 0x20 ADD SWAP1 DUP2 MSTORE PUSH1 0x20 ADD PUSH0 KECCAK256 PUSH0 DUP3 ADD MLOAD DUP2 PUSH0 ADD PUSH0 PUSH2 0x100 EXP DUP2 SLOAD DUP2 PUSH20 0xFFFFFFFFFFFFFFFFFFFFFFFFFFFFFFFFFFFFFFFF MUL NOT AND SWAP1 DUP4 PUSH20 0xFFFFFFFFFFFFFFFFFFFFFFFFFFFFFFFFFFFFFFFF AND MUL OR SWAP1 SSTORE POP PUSH1 0x20 DUP3 ADD MLOAD DUP2 PUSH1 0x1 ADD SWAP1 DUP2 PUSH2 0x1084 SWAP2 SWAP1 PUSH2 0x29EF JUMP JUMPDEST POP PUSH1 0x40 DUP3 ADD MLOAD DUP2 PUSH1 0x2 ADD SWAP1 DUP2 PUSH2 0x109A SWAP2 SWAP1 PUSH2 0x29EF JUMP JUMPDEST POP SWAP1 POP POP PUSH32 0xD1AD2A6DF0DB4F8EAE96780A7ABDC302A7226A0DD990F07551BBFCCCE9A2F4A3 DUP4 DUP4 PUSH1 0x40 MLOAD PUSH2 0x10CF SWAP3 SWAP2 SWAP1 PUSH2 0x2ABE JUMP JUMPDEST PUSH1 0x40 MLOAD DUP1 SWAP2 SUB SWAP1 LOG1 POP POP POP JUMP JUMPDEST PUSH1 0x60 DUP1 DUP3 PUSH0 DUP1 JUMPDEST PUSH1 0x4 PUSH0 DUP5 PUSH20 0xFFFFFFFFFFFFFFFFFFFFFFFFFFFFFFFFFFFFFFFF AND PUSH20 0xFFFFFFFFFFFFFFFFFFFFFFFFFFFFFFFFFFFFFFFF AND DUP2 MSTORE PUSH1 0x20 ADD SWAP1 DUP2 MSTORE PUSH1 0x20 ADD PUSH0 KECCAK256 DUP1 SLOAD SWAP1 POP DUP2 LT ISZERO PUSH2 0x11EA JUMPI CALLER PUSH20 0xFFFFFFFFFFFFFFFFFFFFFFFFFFFFFFFFFFFFFFFF AND PUSH1 0x4 PUSH0 DUP6 PUSH20 0xFFFFFFFFFFFFFFFFFFFFFFFFFFFFFFFFFFFFFFFF AND PUSH20 0xFFFFFFFFFFFFFFFFFFFFFFFFFFFFFFFFFFFFFFFF AND DUP2 MSTORE PUSH1 0x20 ADD SWAP1 DUP2 MSTORE PUSH1 0x20 ADD PUSH0 KECCAK256 DUP3 DUP2 SLOAD DUP2 LT PUSH2 0x1191 JUMPI PUSH2 0x1190 PUSH2 0x26C4 JUMP JUMPDEST JUMPDEST SWAP1 PUSH0 MSTORE PUSH1 0x20 PUSH0 KECCAK256 ADD PUSH0 SWAP1 SLOAD SWAP1 PUSH2 0x100 EXP SWAP1 DIV PUSH20 0xFFFFFFFFFFFFFFFFFFFFFFFFFFFFFFFFFFFFFFFF AND PUSH20 0xFFFFFFFFFFFFFFFFFFFFFFFFFFFFFFFFFFFFFFFF AND SUB PUSH2 0x11DD JUMPI PUSH1 0x1 SWAP2 POP PUSH2 0x11EA JUMP JUMPDEST DUP1 DUP1 PUSH1 0x1 ADD SWAP2 POP POP PUSH2 0x10E3 JUMP JUMPDEST POP DUP1 DUP1 PUSH2 0x1243 JUMPI POP PUSH1 0x6 PUSH0 SWAP1 SLOAD SWAP1 PUSH2 0x100 EXP SWAP1 DIV PUSH20 0xFFFFFFFFFFFFFFFFFFFFFFFFFFFFFFFFFFFFFFFF AND PUSH20 0xFFFFFFFFFFFFFFFFFFFFFFFFFFFFFFFFFFFFFFFF AND CALLER PUSH20 0xFFFFFFFFFFFFFFFFFFFFFFFFFFFFFFFFFFFFFFFF AND EQ JUMPDEST PUSH2 0x1282 JUMPI PUSH1 0x40 MLOAD PUSH32 0x8C379A000000000000000000000000000000000000000000000000000000000 DUP2 MSTORE PUSH1 0x4 ADD PUSH2 0x1279 SWAP1 PUSH2 0x2B82 JUMP JUMPDEST PUSH1 0x40 MLOAD DUP1 SWAP2 SUB SWAP1 REVERT JUMPDEST PUSH0 DUP1 PUSH0 DUP8 PUSH20 0xFFFFFFFFFFFFFFFFFFFFFFFFFFFFFFFFFFFFFFFF AND PUSH20 0xFFFFFFFFFFFFFFFFFFFFFFFFFFFFFFFFFFFFFFFF AND DUP2 MSTORE PUSH1 0x20 ADD SWAP1 DUP2 MSTORE PUSH1 0x20 ADD PUSH0 KECCAK256 PUSH1 0x40 MLOAD DUP1 PUSH1 0x60 ADD PUSH1 0x40 MSTORE SWAP1 DUP2 PUSH0 DUP3 ADD PUSH0 SWAP1 SLOAD SWAP1 PUSH2 0x100 EXP SWAP1 DIV PUSH20 0xFFFFFFFFFFFFFFFFFFFFFFFFFFFFFFFFFFFFFFFF AND PUSH20 0xFFFFFFFFFFFFFFFFFFFFFFFFFFFFFFFFFFFFFFFF AND PUSH20 0xFFFFFFFFFFFFFFFFFFFFFFFFFFFFFFFFFFFFFFFF AND DUP2 MSTORE PUSH1 0x20 ADD PUSH1 0x1 DUP3 ADD DUP1 SLOAD PUSH2 0x132E SWAP1 PUSH2 0x27AC JUMP JUMPDEST DUP1 PUSH1 0x1F ADD PUSH1 0x20 DUP1 SWAP2 DIV MUL PUSH1 0x20 ADD PUSH1 0x40 MLOAD SWAP1 DUP2 ADD PUSH1 0x40 MSTORE DUP1 SWAP3 SWAP2 SWAP1 DUP2 DUP2 MSTORE PUSH1 0x20 ADD DUP3 DUP1 SLOAD PUSH2 0x135A SWAP1 PUSH2 0x27AC JUMP JUMPDEST DUP1 ISZERO PUSH2 0x13A5 JUMPI DUP1 PUSH1 0x1F LT PUSH2 0x137C JUMPI PUSH2 0x100 DUP1 DUP4 SLOAD DIV MUL DUP4 MSTORE SWAP2 PUSH1 0x20 ADD SWAP2 PUSH2 0x13A5 JUMP JUMPDEST DUP3 ADD SWAP2 SWAP1 PUSH0 MSTORE PUSH1 0x20 PUSH0 KECCAK256 SWAP1 JUMPDEST DUP2 SLOAD DUP2 MSTORE SWAP1 PUSH1 0x1 ADD SWAP1 PUSH1 0x20 ADD DUP1 DUP4 GT PUSH2 0x1388 JUMPI DUP3 SWAP1 SUB PUSH1 0x1F AND DUP3 ADD SWAP2 JUMPDEST POP POP POP POP POP DUP2 MSTORE PUSH1 0x20 ADD PUSH1 0x2 DUP3 ADD DUP1 SLOAD PUSH2 0x13BE SWAP1 PUSH2 0x27AC JUMP JUMPDEST DUP1 PUSH1 0x1F ADD PUSH1 0x20 DUP1 SWAP2 DIV MUL PUSH1 0x20 ADD PUSH1 0x40 MLOAD SWAP1 DUP2 ADD PUSH1 0x40 MSTORE DUP1 SWAP3 SWAP2 SWAP1 DUP2 DUP2 MSTORE PUSH1 0x20 ADD DUP3 DUP1 SLOAD PUSH2 0x13EA SWAP1 PUSH2 0x27AC JUMP JUMPDEST DUP1 ISZERO PUSH2 0x1435 JUMPI DUP1 PUSH1 0x1F LT PUSH2 0x140C JUMPI PUSH2 0x100 DUP1 DUP4 SLOAD DIV MUL DUP4 MSTORE SWAP2 PUSH1 0x20 ADD SWAP2 PUSH2 0x1435 JUMP JUMPDEST DUP3 ADD SWAP2 SWAP1 PUSH0 MSTORE PUSH1 0x20 PUSH0 KECCAK256 SWAP1 JUMPDEST DUP2 SLOAD DUP2 MSTORE SWAP1 PUSH1 0x1 ADD SWAP1 PUSH1 0x20 ADD DUP1 DUP4 GT PUSH2 0x1418 JUMPI DUP3 SWAP1 SUB PUSH1 0x1F AND DUP3 ADD SWAP2 JUMPDEST POP POP POP POP POP DUP2 MSTORE POP POP SWAP1 POP PUSH1 0x1 PUSH0 DUP8 PUSH20 0xFFFFFFFFFFFFFFFFFFFFFFFFFFFFFFFFFFFFFFFF AND PUSH20 0xFFFFFFFFFFFFFFFFFFFFFFFFFFFFFFFFFFFFFFFF AND DUP2 MSTORE PUSH1 0x20 ADD SWAP1 DUP2 MSTORE PUSH1 0x20 ADD PUSH0 KECCAK256 PUSH1 0x40 MLOAD DUP1 PUSH1 0x40 ADD PUSH1 0x40 MSTORE DUP1 CALLER PUSH20 0xFFFFFFFFFFFFFFFFFFFFFFFFFFFFFFFFFFFFFFFF AND DUP2 MSTORE PUSH1 0x20 ADD TIMESTAMP DUP2 MSTORE POP SWAP1 DUP1 PUSH1 0x1 DUP2 SLOAD ADD DUP1 DUP3 SSTORE DUP1 SWAP2 POP POP PUSH1 0x1 SWAP1 SUB SWAP1 PUSH0 MSTORE PUSH1 0x20 PUSH0 KECCAK256 SWAP1 PUSH1 0x2 MUL ADD PUSH0 SWAP1 SWAP2 SWAP1 SWAP2 SWAP1 SWAP2 POP PUSH0 DUP3 ADD MLOAD DUP2 PUSH0 ADD PUSH0 PUSH2 0x100 EXP DUP2 SLOAD DUP2 PUSH20 0xFFFFFFFFFFFFFFFFFFFFFFFFFFFFFFFFFFFFFFFF MUL NOT AND SWAP1 DUP4 PUSH20 0xFFFFFFFFFFFFFFFFFFFFFFFFFFFFFFFFFFFFFFFF AND MUL OR SWAP1 SSTORE POP PUSH1 0x20 DUP3 ADD MLOAD DUP2 PUSH1 0x1 ADD SSTORE POP POP PUSH32 0xA6B0E89A817B329EADD0871571DA46CDDB5D6EDC8228B9EDD3174A5879F66208 DUP7 CALLER PUSH1 0x40 MLOAD PUSH2 0x154F SWAP3 SWAP2 SWAP1 PUSH2 0x269D JUMP JUMPDEST PUSH1 0x40 MLOAD DUP1 SWAP2 SUB SWAP1 LOG1 PUSH32 0x69DF56CCC17214C6CB2A6814EEE495BF5A9FD5FDBD1E12392CDFBE549BCCF25B DUP7 PUSH1 0x40 MLOAD PUSH2 0x1586 SWAP2 SWAP1 PUSH2 0x2826 JUMP JUMPDEST PUSH1 0x40 MLOAD DUP1 SWAP2 SUB SWAP1 LOG1 DUP1 PUSH1 0x20 ADD MLOAD DUP2 PUSH1 0x40 ADD MLOAD SWAP5 POP SWAP5 POP POP POP POP SWAP2 POP SWAP2 JUMP JUMPDEST PUSH1 0x60 DUP1 DUP4 PUSH0 DUP1 JUMPDEST PUSH1 0x4 PUSH0 DUP5 PUSH20 0xFFFFFFFFFFFFFFFFFFFFFFFFFFFFFFFFFFFFFFFF AND PUSH20 0xFFFFFFFFFFFFFFFFFFFFFFFFFFFFFFFFFFFFFFFF AND DUP2 MSTORE PUSH1 0x20 ADD SWAP1 DUP2 MSTORE PUSH1 0x20 ADD PUSH0 KECCAK256 DUP1 SLOAD SWAP1 POP DUP2 LT ISZERO PUSH2 0x16B2 JUMPI CALLER PUSH20 0xFFFFFFFFFFFFFFFFFFFFFFFFFFFFFFFFFFFFFFFF AND PUSH1 0x4 PUSH0 DUP6 PUSH20 0xFFFFFFFFFFFFFFFFFFFFFFFFFFFFFFFFFFFFFFFF AND PUSH20 0xFFFFFFFFFFFFFFFFFFFFFFFFFFFFFFFFFFFFFFFF AND DUP2 MSTORE PUSH1 0x20 ADD SWAP1 DUP2 MSTORE PUSH1 0x20 ADD PUSH0 KECCAK256 DUP3 DUP2 SLOAD DUP2 LT PUSH2 0x1659 JUMPI PUSH2 0x1658 PUSH2 0x26C4 JUMP JUMPDEST JUMPDEST SWAP1 PUSH0 MSTORE PUSH1 0x20 PUSH0 KECCAK256 ADD PUSH0 SWAP1 SLOAD SWAP1 PUSH2 0x100 EXP SWAP1 DIV PUSH20 0xFFFFFFFFFFFFFFFFFFFFFFFFFFFFFFFFFFFFFFFF AND PUSH20 0xFFFFFFFFFFFFFFFFFFFFFFFFFFFFFFFFFFFFFFFF AND SUB PUSH2 0x16A5 JUMPI PUSH1 0x1 SWAP2 POP PUSH2 0x16B2 JUMP JUMPDEST DUP1 DUP1 PUSH1 0x1 ADD SWAP2 POP POP PUSH2 0x15AB JUMP JUMPDEST POP DUP1 DUP1 PUSH2 0x170B JUMPI POP PUSH1 0x6 PUSH0 SWAP1 SLOAD SWAP1 PUSH2 0x100 EXP SWAP1 DIV PUSH20 0xFFFFFFFFFFFFFFFFFFFFFFFFFFFFFFFFFFFFFFFF AND PUSH20 0xFFFFFFFFFFFFFFFFFFFFFFFFFFFFFFFFFFFFFFFF AND CALLER PUSH20 0xFFFFFFFFFFFFFFFFFFFFFFFFFFFFFFFFFFFFFFFF AND EQ JUMPDEST PUSH2 0x174A JUMPI PUSH1 0x40 MLOAD PUSH32 0x8C379A000000000000000000000000000000000000000000000000000000000 DUP2 MSTORE PUSH1 0x4 ADD PUSH2 0x1741 SWAP1 PUSH2 0x2B82 JUMP JUMPDEST PUSH1 0x40 MLOAD DUP1 SWAP2 SUB SWAP1 REVERT JUMPDEST DUP5 PUSH1 0x40 MLOAD PUSH1 0x20 ADD PUSH2 0x175B SWAP2 SWAP1 PUSH2 0x2BDA JUMP JUMPDEST PUSH1 0x40 MLOAD PUSH1 0x20 DUP2 DUP4 SUB SUB DUP2 MSTORE SWAP1 PUSH1 0x40 MSTORE DUP1 MLOAD SWAP1 PUSH1 0x20 ADD KECCAK256 PUSH1 0x5 PUSH0 DUP9 PUSH20 0xFFFFFFFFFFFFFFFFFFFFFFFFFFFFFFFFFFFFFFFF AND PUSH20 0xFFFFFFFFFFFFFFFFFFFFFFFFFFFFFFFFFFFFFFFF AND DUP2 MSTORE PUSH1 0x20 ADD SWAP1 DUP2 MSTORE PUSH1 0x20 ADD PUSH0 KECCAK256 PUSH1 0x40 MLOAD PUSH1 0x20 ADD PUSH2 0x17BE SWAP2 SWAP1 PUSH2 0x2C70 JUMP JUMPDEST PUSH1 0x40 MLOAD PUSH1 0x20 DUP2 DUP4 SUB SUB DUP2 MSTORE SWAP1 PUSH1 0x40 MSTORE DUP1 MLOAD SWAP1 PUSH1 0x20 ADD KECCAK256 EQ PUSH2 0x1814 JUMPI PUSH1 0x40 MLOAD PUSH32 0x8C379A000000000000000000000000000000000000000000000000000000000 DUP2 MSTORE PUSH1 0x4 ADD PUSH2 0x180B SWAP1 PUSH2 0x2CD0 JUMP JUMPDEST PUSH1 0x40 MLOAD DUP1 SWAP2 SUB SWAP1 REVERT JUMPDEST PUSH0 DUP1 PUSH0 DUP9 PUSH20 0xFFFFFFFFFFFFFFFFFFFFFFFFFFFFFFFFFFFFFFFF AND PUSH20 0xFFFFFFFFFFFFFFFFFFFFFFFFFFFFFFFFFFFFFFFF AND DUP2 MSTORE PUSH1 0x20 ADD SWAP1 DUP2 MSTORE PUSH1 0x20 ADD PUSH0 KECCAK256 PUSH1 0x40 MLOAD DUP1 PUSH1 0x60 ADD PUSH1 0x40 MSTORE SWAP1 DUP2 PUSH0 DUP3 ADD PUSH0 SWAP1 SLOAD SWAP1 PUSH2 0x100 EXP SWAP1 DIV PUSH20 0xFFFFFFFFFFFFFFFFFFFFFFFFFFFFFFFFFFFFFFFF AND PUSH20 0xFFFFFFFFFFFFFFFFFFFFFFFFFFFFFFFFFFFFFFFF AND PUSH20 0xFFFFFFFFFFFFFFFFFFFFFFFFFFFFFFFFFFFFFFFF AND DUP2 MSTORE PUSH1 0x20 ADD PUSH1 0x1 DUP3 ADD DUP1 SLOAD PUSH2 0x18C0 SWAP1 PUSH2 0x27AC JUMP JUMPDEST DUP1 PUSH1 0x1F ADD PUSH1 0x20 DUP1 SWAP2 DIV MUL PUSH1 0x20 ADD PUSH1 0x40 MLOAD SWAP1 DUP2 ADD PUSH1 0x40 MSTORE DUP1 SWAP3 SWAP2 SWAP1 DUP2 DUP2 MSTORE PUSH1 0x20 ADD DUP3 DUP1 SLOAD PUSH2 0x18EC SWAP1 PUSH2 0x27AC JUMP JUMPDEST DUP1 ISZERO PUSH2 0x1937 JUMPI DUP1 PUSH1 0x1F LT PUSH2 0x190E JUMPI PUSH2 0x100 DUP1 DUP4 SLOAD DIV MUL DUP4 MSTORE SWAP2 PUSH1 0x20 ADD SWAP2 PUSH2 0x1937 JUMP JUMPDEST DUP3 ADD SWAP2 SWAP1 PUSH0 MSTORE PUSH1 0x20 PUSH0 KECCAK256 SWAP1 JUMPDEST DUP2 SLOAD DUP2 MSTORE SWAP1 PUSH1 0x1 ADD SWAP1 PUSH1 0x20 ADD DUP1 DUP4 GT PUSH2 0x191A JUMPI DUP3 SWAP1 SUB PUSH1 0x1F AND DUP3 ADD SWAP2 JUMPDEST POP POP POP POP POP DUP2 MSTORE PUSH1 0x20 ADD PUSH1 0x2 DUP3 ADD DUP1 SLOAD PUSH2 0x1950 SWAP1 PUSH2 0x27AC JUMP JUMPDEST DUP1 PUSH1 0x1F ADD PUSH1 0x20 DUP1 SWAP2 DIV MUL PUSH1 0x20 ADD PUSH1 0x40 MLOAD SWAP1 DUP2 ADD PUSH1 0x40 MSTORE DUP1 SWAP3 SWAP2 SWAP1 DUP2 DUP2 MSTORE PUSH1 0x20 ADD DUP3 DUP1 SLOAD PUSH2 0x197C SWAP1 PUSH2 0x27AC JUMP JUMPDEST DUP1 ISZERO PUSH2 0x19C7 JUMPI DUP1 PUSH1 0x1F LT PUSH2 0x199E JUMPI PUSH2 0x100 DUP1 DUP4 SLOAD DIV MUL DUP4 MSTORE SWAP2 PUSH1 0x20 ADD SWAP2 PUSH2 0x19C7 JUMP JUMPDEST DUP3 ADD SWAP2 SWAP1 PUSH0 MSTORE PUSH1 0x20 PUSH0 KECCAK256 SWAP1 JUMPDEST DUP2 SLOAD DUP2 MSTORE SWAP1 PUSH1 0x1 ADD SWAP1 PUSH1 0x20 ADD DUP1 DUP4 GT PUSH2 0x19AA JUMPI DUP3 SWAP1 SUB PUSH1 0x1F AND DUP3 ADD SWAP2 JUMPDEST POP POP POP POP POP DUP2 MSTORE POP POP SWAP1 POP PUSH1 0x1 PUSH0 DUP9 PUSH20 0xFFFFFFFFFFFFFFFFFFFFFFFFFFFFFFFFFFFFFFFF AND PUSH20 0xFFFFFFFFFFFFFFFFFFFFFFFFFFFFFFFFFFFFFFFF AND DUP2 MSTORE PUSH1 0x20 ADD SWAP1 DUP2 MSTORE PUSH1 0x20 ADD PUSH0 KECCAK256 PUSH1 0x40 MLOAD DUP1 PUSH1 0x40 ADD PUSH1 0x40 MSTORE DUP1 CALLER PUSH20 0xFFFFFFFFFFFFFFFFFFFFFFFFFFFFFFFFFFFFFFFF AND DUP2 MSTORE PUSH1 0x20 ADD TIMESTAMP DUP2 MSTORE POP SWAP1 DUP1 PUSH1 0x1 DUP2 SLOAD ADD DUP1 DUP3 SSTORE DUP1 SWAP2 POP POP PUSH1 0x1 SWAP1 SUB SWAP1 PUSH0 MSTORE PUSH1 0x20 PUSH0 KECCAK256 SWAP1 PUSH1 0x2 MUL ADD PUSH0 SWAP1 SWAP2 SWAP1 SWAP2 SWAP1 SWAP2 POP PUSH0 DUP3 ADD MLOAD DUP2 PUSH0 ADD PUSH0 PUSH2 0x100 EXP DUP2 SLOAD DUP2 PUSH20 0xFFFFFFFFFFFFFFFFFFFFFFFFFFFFFFFFFFFFFFFF MUL NOT AND SWAP1 DUP4 PUSH20 0xFFFFFFFFFFFFFFFFFFFFFFFFFFFFFFFFFFFFFFFF AND MUL OR SWAP1 SSTORE POP PUSH1 0x20 DUP3 ADD MLOAD DUP2 PUSH1 0x1 ADD SSTORE POP POP PUSH32 0xA6B0E89A817B329EADD0871571DA46CDDB5D6EDC8228B9EDD3174A5879F66208 DUP8 CALLER PUSH1 0x40 MLOAD PUSH2 0x1AE1 SWAP3 SWAP2 SWAP1 PUSH2 0x269D JUMP JUMPDEST PUSH1 0x40 MLOAD DUP1 SWAP2 SUB SWAP1 LOG1 DUP1 PUSH1 0x20 ADD MLOAD DUP2 PUSH1 0x40 ADD MLOAD SWAP5 POP SWAP5 POP POP POP POP SWAP3 POP SWAP3 SWAP1 POP JUMP JUMPDEST PUSH1 0x6 PUSH0 SWAP1 SLOAD SWAP1 PUSH2 0x100 EXP SWAP1 DIV PUSH20 0xFFFFFFFFFFFFFFFFFFFFFFFFFFFFFFFFFFFFFFFF AND PUSH20 0xFFFFFFFFFFFFFFFFFFFFFFFFFFFFFFFFFFFFFFFF AND CALLER PUSH20 0xFFFFFFFFFFFFFFFFFFFFFFFFFFFFFFFFFFFFFFFF AND EQ PUSH2 0x1B90 JUMPI PUSH1 0x40 MLOAD PUSH32 0x8C379A000000000000000000000000000000000000000000000000000000000 DUP2 MSTORE PUSH1 0x4 ADD PUSH2 0x1B87 SWAP1 PUSH2 0x267F JUMP JUMPDEST PUSH1 0x40 MLOAD DUP1 SWAP2 SUB SWAP1 REVERT JUMPDEST PUSH0 DUP1 PUSH0 DUP5 PUSH20 0xFFFFFFFFFFFFFFFFFFFFFFFFFFFFFFFFFFFFFFFF AND PUSH20 0xFFFFFFFFFFFFFFFFFFFFFFFFFFFFFFFFFFFFFFFF AND DUP2 MSTORE PUSH1 0x20 ADD SWAP1 DUP2 MSTORE PUSH1 0x20 ADD PUSH0 KECCAK256 PUSH1 0x2 ADD DUP1 SLOAD PUSH2 0x1BDB SWAP1 PUSH2 0x27AC JUMP JUMPDEST DUP1 PUSH1 0x1F ADD PUSH1 0x20 DUP1 SWAP2 DIV MUL PUSH1 0x20 ADD PUSH1 0x40 MLOAD SWAP1 DUP2 ADD PUSH1 0x40 MSTORE DUP1 SWAP3 SWAP2 SWAP1 DUP2 DUP2 MSTORE PUSH1 0x20 ADD DUP3 DUP1 SLOAD PUSH2 0x1C07 SWAP1 PUSH2 0x27AC JUMP JUMPDEST DUP1 ISZERO PUSH2 0x1C52 JUMPI DUP1 PUSH1 0x1F LT PUSH2 0x1C29 JUMPI PUSH2 0x100 DUP1 DUP4 SLOAD DIV MUL DUP4 MSTORE SWAP2 PUSH1 0x20 ADD SWAP2 PUSH2 0x1C52 JUMP JUMPDEST DUP3 ADD SWAP2 SWAP1 PUSH0 MSTORE PUSH1 0x20 PUSH0 KECCAK256 SWAP1 JUMPDEST DUP2 SLOAD DUP2 MSTORE SWAP1 PUSH1 0x1 ADD SWAP1 PUSH1 0x20 ADD DUP1 DUP4 GT PUSH2 0x1C35 JUMPI DUP3 SWAP1 SUB PUSH1 0x1F AND DUP3 ADD SWAP2 JUMPDEST POP POP POP POP POP SWAP1 POP PUSH1 0x2 PUSH0 DUP5 PUSH20 0xFFFFFFFFFFFFFFFFFFFFFFFFFFFFFFFFFFFFFFFF AND PUSH20 0xFFFFFFFFFFFFFFFFFFFFFFFFFFFFFFFFFFFFFFFF AND DUP2 MSTORE PUSH1 0x20 ADD SWAP1 DUP2 MSTORE PUSH1 0x20 ADD PUSH0 KECCAK256 PUSH1 0x40 MLOAD DUP1 PUSH1 0x60 ADD PUSH1 0x40 MSTORE DUP1 DUP4 DUP2 MSTORE PUSH1 0x20 ADD DUP5 DUP2 MSTORE PUSH1 0x20 ADD TIMESTAMP DUP2 MSTORE POP SWAP1 DUP1 PUSH1 0x1 DUP2 SLOAD ADD DUP1 DUP3 SSTORE DUP1 SWAP2 POP POP PUSH1 0x1 SWAP1 SUB SWAP1 PUSH0 MSTORE PUSH1 0x20 PUSH0 KECCAK256 SWAP1 PUSH1 0x3 MUL ADD PUSH0 SWAP1 SWAP2 SWAP1 SWAP2 SWAP1 SWAP2 POP PUSH0 DUP3 ADD MLOAD DUP2 PUSH0 ADD SWAP1 DUP2 PUSH2 0x1CEA SWAP2 SWAP1 PUSH2 0x29EF JUMP JUMPDEST POP PUSH1 0x20 DUP3 ADD MLOAD DUP2 PUSH1 0x1 ADD SWAP1 DUP2 PUSH2 0x1D00 SWAP2 SWAP1 PUSH2 0x29EF JUMP JUMPDEST POP PUSH1 0x40 DUP3 ADD MLOAD DUP2 PUSH1 0x2 ADD SSTORE POP POP DUP2 PUSH0 DUP1 DUP6 PUSH20 0xFFFFFFFFFFFFFFFFFFFFFFFFFFFFFFFFFFFFFFFF AND PUSH20 0xFFFFFFFFFFFFFFFFFFFFFFFFFFFFFFFFFFFFFFFF AND DUP2 MSTORE PUSH1 0x20 ADD SWAP1 DUP2 MSTORE PUSH1 0x20 ADD PUSH0 KECCAK256 PUSH1 0x2 ADD SWAP1 DUP2 PUSH2 0x1D59 SWAP2 SWAP1 PUSH2 0x29EF JUMP JUMPDEST POP PUSH32 0x134AB6E5AF4F525674B134B11010049BA3D922613F86B74169E0E506B6FAABEF DUP4 DUP4 PUSH1 0x40 MLOAD PUSH2 0x1D8B SWAP3 SWAP2 SWAP1 PUSH2 0x2ABE JUMP JUMPDEST PUSH1 0x40 MLOAD DUP1 SWAP2 SUB SWAP1 LOG1 POP POP POP JUMP JUMPDEST PUSH1 0x6 PUSH0 SWAP1 SLOAD SWAP1 PUSH2 0x100 EXP SWAP1 DIV PUSH20 0xFFFFFFFFFFFFFFFFFFFFFFFFFFFFFFFFFFFFFFFF AND PUSH20 0xFFFFFFFFFFFFFFFFFFFFFFFFFFFFFFFFFFFFFFFF AND CALLER PUSH20 0xFFFFFFFFFFFFFFFFFFFFFFFFFFFFFFFFFFFFFFFF AND EQ PUSH2 0x1E27 JUMPI PUSH1 0x40 MLOAD PUSH32 0x8C379A000000000000000000000000000000000000000000000000000000000 DUP2 MSTORE PUSH1 0x4 ADD PUSH2 0x1E1E SWAP1 PUSH2 0x267F JUMP JUMPDEST PUSH1 0x40 MLOAD DUP1 SWAP2 SUB SWAP1 REVERT JUMPDEST PUSH0 DUP2 TIMESTAMP PUSH2 0x1E34 SWAP2 SWAP1 PUSH2 0x2D1B JUMP JUMPDEST SWAP1 POP PUSH1 0x3 PUSH0 DUP6 PUSH20 0xFFFFFFFFFFFFFFFFFFFFFFFFFFFFFFFFFFFFFFFF AND PUSH20 0xFFFFFFFFFFFFFFFFFFFFFFFFFFFFFFFFFFFFFFFF AND DUP2 MSTORE PUSH1 0x20 ADD SWAP1 DUP2 MSTORE PUSH1 0x20 ADD PUSH0 KECCAK256 PUSH1 0x40 MLOAD DUP1 PUSH1 0x40 ADD PUSH1 0x40 MSTORE DUP1 DUP6 PUSH20 0xFFFFFFFFFFFFFFFFFFFFFFFFFFFFFFFFFFFFFFFF AND DUP2 MSTORE PUSH1 0x20 ADD DUP4 DUP2 MSTORE POP SWAP1 DUP1 PUSH1 0x1 DUP2 SLOAD ADD DUP1 DUP3 SSTORE DUP1 SWAP2 POP POP PUSH1 0x1 SWAP1 SUB SWAP1 PUSH0 MSTORE PUSH1 0x20 PUSH0 KECCAK256 SWAP1 PUSH1 0x2 MUL ADD PUSH0 SWAP1 SWAP2 SWAP1 SWAP2 SWAP1 SWAP2 POP PUSH0 DUP3 ADD MLOAD DUP2 PUSH0 ADD PUSH0 PUSH2 0x100 EXP DUP2 SLOAD DUP2 PUSH20 0xFFFFFFFFFFFFFFFFFFFFFFFFFFFFFFFFFFFFFFFF MUL NOT AND SWAP1 DUP4 PUSH20 0xFFFFFFFFFFFFFFFFFFFFFFFFFFFFFFFFFFFFFFFF AND MUL OR SWAP1 SSTORE POP PUSH1 0x20 DUP3 ADD MLOAD DUP2 PUSH1 0x1 ADD SSTORE POP POP PUSH32 0x2B42379838597C2783589AD0916DDC52EA245D36EBAFA61ADED63868021F944F DUP5 DUP5 PUSH1 0x40 MLOAD PUSH2 0x1F45 SWAP3 SWAP2 SWAP1 PUSH2 0x269D JUMP JUMPDEST PUSH1 0x40 MLOAD DUP1 SWAP2 SUB SWAP1 LOG1 POP POP POP POP JUMP JUMPDEST PUSH0 PUSH1 0x40 MLOAD SWAP1 POP SWAP1 JUMP JUMPDEST PUSH0 DUP1 REVERT JUMPDEST PUSH0 DUP1 REVERT JUMPDEST PUSH0 PUSH20 0xFFFFFFFFFFFFFFFFFFFFFFFFFFFFFFFFFFFFFFFF DUP3 AND SWAP1 POP SWAP2 SWAP1 POP JUMP JUMPDEST PUSH0 PUSH2 0x1F8D DUP3 PUSH2 0x1F64 JUMP JUMPDEST SWAP1 POP SWAP2 SWAP1 POP JUMP JUMPDEST PUSH2 0x1F9D DUP2 PUSH2 0x1F83 JUMP JUMPDEST DUP2 EQ PUSH2 0x1FA7 JUMPI PUSH0 DUP1 REVERT JUMPDEST POP JUMP JUMPDEST PUSH0 DUP2 CALLDATALOAD SWAP1 POP PUSH2 0x1FB8 DUP2 PUSH2 0x1F94 JUMP JUMPDEST SWAP3 SWAP2 POP POP JUMP JUMPDEST PUSH0 PUSH1 0x20 DUP3 DUP5 SUB SLT ISZERO PUSH2 0x1FD3 JUMPI PUSH2 0x1FD2 PUSH2 0x1F5C JUMP JUMPDEST JUMPDEST PUSH0 PUSH2 0x1FE0 DUP5 DUP3 DUP6 ADD PUSH2 0x1FAA JUMP JUMPDEST SWAP2 POP POP SWAP3 SWAP2 POP POP JUMP JUMPDEST PUSH0 DUP2 MLOAD SWAP1 POP SWAP2 SWAP1 POP JUMP JUMPDEST PUSH0 DUP3 DUP3 MSTORE PUSH1 0x20 DUP3 ADD SWAP1 POP SWAP3 SWAP2 POP POP JUMP JUMPDEST PUSH0 DUP2 SWAP1 POP PUSH1 0x20 DUP3 ADD SWAP1 POP SWAP2 SWAP1 POP JUMP JUMPDEST PUSH2 0x201B DUP2 PUSH2 0x1F83 JUMP JUMPDEST DUP3 MSTORE POP POP JUMP JUMPDEST PUSH0 DUP2 SWAP1 POP SWAP2 SWAP1 POP JUMP JUMPDEST PUSH2 0x2033 DUP2 PUSH2 0x2021 JUMP JUMPDEST DUP3 MSTORE POP POP JUMP JUMPDEST PUSH1 0x40 DUP3 ADD PUSH0 DUP3 ADD MLOAD PUSH2 0x204D PUSH0 DUP6 ADD DUP3 PUSH2 0x2012 JUMP JUMPDEST POP PUSH1 0x20 DUP3 ADD MLOAD PUSH2 0x2060 PUSH1 0x20 DUP6 ADD DUP3 PUSH2 0x202A JUMP JUMPDEST POP POP POP POP JUMP JUMPDEST PUSH0 PUSH2 0x2071 DUP4 DUP4 PUSH2 0x2039 JUMP JUMPDEST PUSH1 0x40 DUP4 ADD SWAP1 POP SWAP3 SWAP2 POP POP JUMP JUMPDEST PUSH0 PUSH1 0x20 DUP3 ADD SWAP1 POP SWAP2 SWAP1 POP JUMP JUMPDEST PUSH0 PUSH2 0x2093 DUP3 PUSH2 0x1FE9 JUMP JUMPDEST PUSH2 0x209D DUP2 DUP6 PUSH2 0x1FF3 JUMP JUMPDEST SWAP4 POP PUSH2 0x20A8 DUP4 PUSH2 0x2003 JUMP JUMPDEST DUP1 PUSH0 JUMPDEST DUP4 DUP2 LT ISZERO PUSH2 0x20D8 JUMPI DUP2 MLOAD PUSH2 0x20BF DUP9 DUP3 PUSH2 0x2066 JUMP JUMPDEST SWAP8 POP PUSH2 0x20CA DUP4 PUSH2 0x207D JUMP JUMPDEST SWAP3 POP POP PUSH1 0x1 DUP2 ADD SWAP1 POP PUSH2 0x20AB JUMP JUMPDEST POP DUP6 SWAP4 POP POP POP POP SWAP3 SWAP2 POP POP JUMP JUMPDEST PUSH0 PUSH1 0x20 DUP3 ADD SWAP1 POP DUP2 DUP2 SUB PUSH0 DUP4 ADD MSTORE PUSH2 0x20FD DUP2 DUP5 PUSH2 0x2089 JUMP JUMPDEST SWAP1 POP SWAP3 SWAP2 POP POP JUMP JUMPDEST PUSH0 DUP2 MLOAD SWAP1 POP SWAP2 SWAP1 POP JUMP JUMPDEST PUSH0 DUP3 DUP3 MSTORE PUSH1 0x20 DUP3 ADD SWAP1 POP SWAP3 SWAP2 POP POP JUMP JUMPDEST DUP3 DUP2 DUP4 MCOPY PUSH0 DUP4 DUP4 ADD MSTORE POP POP POP JUMP JUMPDEST PUSH0 PUSH1 0x1F NOT PUSH1 0x1F DUP4 ADD AND SWAP1 POP SWAP2 SWAP1 POP JUMP JUMPDEST PUSH0 PUSH2 0x2147 DUP3 PUSH2 0x2105 JUMP JUMPDEST PUSH2 0x2151 DUP2 DUP6 PUSH2 0x210F JUMP JUMPDEST SWAP4 POP PUSH2 0x2161 DUP2 DUP6 PUSH1 0x20 DUP7 ADD PUSH2 0x211F JUMP JUMPDEST PUSH2 0x216A DUP2 PUSH2 0x212D JUMP JUMPDEST DUP5 ADD SWAP2 POP POP SWAP3 SWAP2 POP POP JUMP JUMPDEST PUSH0 PUSH1 0x40 DUP3 ADD SWAP1 POP DUP2 DUP2 SUB PUSH0 DUP4 ADD MSTORE PUSH2 0x218D DUP2 DUP6 PUSH2 0x213D JUMP JUMPDEST SWAP1 POP DUP2 DUP2 SUB PUSH1 0x20 DUP4 ADD MSTORE PUSH2 0x21A1 DUP2 DUP5 PUSH2 0x213D JUMP JUMPDEST SWAP1 POP SWAP4 SWAP3 POP POP POP JUMP JUMPDEST PUSH0 DUP1 PUSH1 0x40 DUP4 DUP6 SUB SLT ISZERO PUSH2 0x21C0 JUMPI PUSH2 0x21BF PUSH2 0x1F5C JUMP JUMPDEST JUMPDEST PUSH0 PUSH2 0x21CD DUP6 DUP3 DUP7 ADD PUSH2 0x1FAA JUMP JUMPDEST SWAP3 POP POP PUSH1 0x20 PUSH2 0x21DE DUP6 DUP3 DUP7 ADD PUSH2 0x1FAA JUMP JUMPDEST SWAP2 POP POP SWAP3 POP SWAP3 SWAP1 POP JUMP JUMPDEST PUSH0 DUP2 MLOAD SWAP1 POP SWAP2 SWAP1 POP JUMP JUMPDEST PUSH0 DUP3 DUP3 MSTORE PUSH1 0x20 DUP3 ADD SWAP1 POP SWAP3 SWAP2 POP POP JUMP JUMPDEST PUSH0 DUP2 SWAP1 POP PUSH1 0x20 DUP3 ADD SWAP1 POP SWAP2 SWAP1 POP JUMP JUMPDEST PUSH0 DUP3 DUP3 MSTORE PUSH1 0x20 DUP3 ADD SWAP1 POP SWAP3 SWAP2 POP POP JUMP JUMPDEST PUSH0 PUSH2 0x222B DUP3 PUSH2 0x2105 JUMP JUMPDEST PUSH2 0x2235 DUP2 DUP6 PUSH2 0x2211 JUMP JUMPDEST SWAP4 POP PUSH2 0x2245 DUP2 DUP6 PUSH1 0x20 DUP7 ADD PUSH2 0x211F JUMP JUMPDEST PUSH2 0x224E DUP2 PUSH2 0x212D JUMP JUMPDEST DUP5 ADD SWAP2 POP POP SWAP3 SWAP2 POP POP JUMP JUMPDEST PUSH0 PUSH1 0x60 DUP4 ADD PUSH0 DUP4 ADD MLOAD DUP5 DUP3 SUB PUSH0 DUP7 ADD MSTORE PUSH2 0x2273 DUP3 DUP3 PUSH2 0x2221 JUMP JUMPDEST SWAP2 POP POP PUSH1 0x20 DUP4 ADD MLOAD DUP5 DUP3 SUB PUSH1 0x20 DUP7 ADD MSTORE PUSH2 0x228D DUP3 DUP3 PUSH2 0x2221 JUMP JUMPDEST SWAP2 POP POP PUSH1 0x40 DUP4 ADD MLOAD PUSH2 0x22A2 PUSH1 0x40 DUP7 ADD DUP3 PUSH2 0x202A JUMP JUMPDEST POP DUP1 SWAP2 POP POP SWAP3 SWAP2 POP POP JUMP JUMPDEST PUSH0 PUSH2 0x22B8 DUP4 DUP4 PUSH2 0x2259 JUMP JUMPDEST SWAP1 POP SWAP3 SWAP2 POP POP JUMP JUMPDEST PUSH0 PUSH1 0x20 DUP3 ADD SWAP1 POP SWAP2 SWAP1 POP JUMP JUMPDEST PUSH0 PUSH2 0x22D6 DUP3 PUSH2 0x21E8 JUMP JUMPDEST PUSH2 0x22E0 DUP2 DUP6 PUSH2 0x21F2 JUMP JUMPDEST SWAP4 POP DUP4 PUSH1 0x20 DUP3 MUL DUP6 ADD PUSH2 0x22F2 DUP6 PUSH2 0x2202 JUMP JUMPDEST DUP1 PUSH0 JUMPDEST DUP6 DUP2 LT ISZERO PUSH2 0x232D JUMPI DUP5 DUP5 SUB DUP10 MSTORE DUP2 MLOAD PUSH2 0x230E DUP6 DUP3 PUSH2 0x22AD JUMP JUMPDEST SWAP5 POP PUSH2 0x2319 DUP4 PUSH2 0x22C0 JUMP JUMPDEST SWAP3 POP PUSH1 0x20 DUP11 ADD SWAP10 POP POP PUSH1 0x1 DUP2 ADD SWAP1 POP PUSH2 0x22F5 JUMP JUMPDEST POP DUP3 SWAP8 POP DUP8 SWAP6 POP POP POP POP POP POP SWAP3 SWAP2 POP POP JUMP JUMPDEST PUSH0 PUSH1 0x20 DUP3 ADD SWAP1 POP DUP2 DUP2 SUB PUSH0 DUP4 ADD MSTORE PUSH2 0x2357 DUP2 DUP5 PUSH2 0x22CC JUMP JUMPDEST SWAP1 POP SWAP3 SWAP2 POP POP JUMP JUMPDEST PUSH2 0x2368 DUP2 PUSH2 0x1F83 JUMP JUMPDEST DUP3 MSTORE POP POP JUMP JUMPDEST PUSH0 PUSH1 0x20 DUP3 ADD SWAP1 POP PUSH2 0x2381 PUSH0 DUP4 ADD DUP5 PUSH2 0x235F JUMP JUMPDEST SWAP3 SWAP2 POP POP JUMP JUMPDEST PUSH0 DUP1 REVERT JUMPDEST PUSH0 DUP1 REVERT JUMPDEST PUSH32 0x4E487B7100000000000000000000000000000000000000000000000000000000 PUSH0 MSTORE PUSH1 0x41 PUSH1 0x4 MSTORE PUSH1 0x24 PUSH0 REVERT JUMPDEST PUSH2 0x23C5 DUP3 PUSH2 0x212D JUMP JUMPDEST DUP2 ADD DUP2 DUP2 LT PUSH8 0xFFFFFFFFFFFFFFFF DUP3 GT OR ISZERO PUSH2 0x23E4 JUMPI PUSH2 0x23E3 PUSH2 0x238F JUMP JUMPDEST JUMPDEST DUP1 PUSH1 0x40 MSTORE POP POP POP JUMP JUMPDEST PUSH0 PUSH2 0x23F6 PUSH2 0x1F53 JUMP JUMPDEST SWAP1 POP PUSH2 0x2402 DUP3 DUP3 PUSH2 0x23BC JUMP JUMPDEST SWAP2 SWAP1 POP JUMP JUMPDEST PUSH0 PUSH8 0xFFFFFFFFFFFFFFFF DUP3 GT ISZERO PUSH2 0x2421 JUMPI PUSH2 0x2420 PUSH2 0x238F JUMP JUMPDEST JUMPDEST PUSH2 0x242A DUP3 PUSH2 0x212D JUMP JUMPDEST SWAP1 POP PUSH1 0x20 DUP2 ADD SWAP1 POP SWAP2 SWAP1 POP JUMP JUMPDEST DUP3 DUP2 DUP4 CALLDATACOPY PUSH0 DUP4 DUP4 ADD MSTORE POP POP POP JUMP JUMPDEST PUSH0 PUSH2 0x2457 PUSH2 0x2452 DUP5 PUSH2 0x2407 JUMP JUMPDEST PUSH2 0x23ED JUMP JUMPDEST SWAP1 POP DUP3 DUP2 MSTORE PUSH1 0x20 DUP2 ADD DUP5 DUP5 DUP5 ADD GT ISZERO PUSH2 0x2473 JUMPI PUSH2 0x2472 PUSH2 0x238B JUMP JUMPDEST JUMPDEST PUSH2 0x247E DUP5 DUP3 DUP6 PUSH2 0x2437 JUMP JUMPDEST POP SWAP4 SWAP3 POP POP POP JUMP JUMPDEST PUSH0 DUP3 PUSH1 0x1F DUP4 ADD SLT PUSH2 0x249A JUMPI PUSH2 0x2499 PUSH2 0x2387 JUMP JUMPDEST JUMPDEST DUP2 CALLDATALOAD PUSH2 0x24AA DUP5 DUP3 PUSH1 0x20 DUP7 ADD PUSH2 0x2445 JUMP JUMPDEST SWAP2 POP POP SWAP3 SWAP2 POP POP JUMP JUMPDEST PUSH0 DUP1 PUSH1 0x40 DUP4 DUP6 SUB SLT ISZERO PUSH2 0x24C9 JUMPI PUSH2 0x24C8 PUSH2 0x1F5C JUMP JUMPDEST JUMPDEST PUSH0 PUSH2 0x24D6 DUP6 DUP3 DUP7 ADD PUSH2 0x1FAA JUMP JUMPDEST SWAP3 POP POP PUSH1 0x20 DUP4 ADD CALLDATALOAD PUSH8 0xFFFFFFFFFFFFFFFF DUP2 GT ISZERO PUSH2 0x24F7 JUMPI PUSH2 0x24F6 PUSH2 0x1F60 JUMP JUMPDEST JUMPDEST PUSH2 0x2503 DUP6 DUP3 DUP7 ADD PUSH2 0x2486 JUMP JUMPDEST SWAP2 POP POP SWAP3 POP SWAP3 SWAP1 POP JUMP JUMPDEST PUSH0 DUP1 PUSH0 PUSH1 0x60 DUP5 DUP7 SUB SLT ISZERO PUSH2 0x2524 JUMPI PUSH2 0x2523 PUSH2 0x1F5C JUMP JUMPDEST JUMPDEST PUSH0 PUSH2 0x2531 DUP7 DUP3 DUP8 ADD PUSH2 0x1FAA JUMP JUMPDEST SWAP4 POP POP PUSH1 0x20 DUP5 ADD CALLDATALOAD PUSH8 0xFFFFFFFFFFFFFFFF DUP2 GT ISZERO PUSH2 0x2552 JUMPI PUSH2 0x2551 PUSH2 0x1F60 JUMP JUMPDEST JUMPDEST PUSH2 0x255E DUP7 DUP3 DUP8 ADD PUSH2 0x2486 JUMP JUMPDEST SWAP3 POP POP PUSH1 0x40 DUP5 ADD CALLDATALOAD PUSH8 0xFFFFFFFFFFFFFFFF DUP2 GT ISZERO PUSH2 0x257F JUMPI PUSH2 0x257E PUSH2 0x1F60 JUMP JUMPDEST JUMPDEST PUSH2 0x258B DUP7 DUP3 DUP8 ADD PUSH2 0x2486 JUMP JUMPDEST SWAP2 POP POP SWAP3 POP SWAP3 POP SWAP3 JUMP JUMPDEST PUSH2 0x259E DUP2 PUSH2 0x2021 JUMP JUMPDEST DUP2 EQ PUSH2 0x25A8 JUMPI PUSH0 DUP1 REVERT JUMPDEST POP JUMP JUMPDEST PUSH0 DUP2 CALLDATALOAD SWAP1 POP PUSH2 0x25B9 DUP2 PUSH2 0x2595 JUMP JUMPDEST SWAP3 SWAP2 POP POP JUMP JUMPDEST PUSH0 DUP1 PUSH0 PUSH1 0x60 DUP5 DUP7 SUB SLT ISZERO PUSH2 0x25D6 JUMPI PUSH2 0x25D5 PUSH2 0x1F5C JUMP JUMPDEST JUMPDEST PUSH0 PUSH2 0x25E3 DUP7 DUP3 DUP8 ADD PUSH2 0x1FAA JUMP JUMPDEST SWAP4 POP POP PUSH1 0x20 PUSH2 0x25F4 DUP7 DUP3 DUP8 ADD PUSH2 0x1FAA JUMP JUMPDEST SWAP3 POP POP PUSH1 0x40 PUSH2 0x2605 DUP7 DUP3 DUP8 ADD PUSH2 0x25AB JUMP JUMPDEST SWAP2 POP POP SWAP3 POP SWAP3 POP SWAP3 JUMP JUMPDEST PUSH32 0x4170656E6173206F2061646D20706F6465206578656375746172206573746120 PUSH0 DUP3 ADD MSTORE PUSH32 0x66756E63616F2E00000000000000000000000000000000000000000000000000 PUSH1 0x20 DUP3 ADD MSTORE POP JUMP JUMPDEST PUSH0 PUSH2 0x2669 PUSH1 0x27 DUP4 PUSH2 0x210F JUMP JUMPDEST SWAP2 POP PUSH2 0x2674 DUP3 PUSH2 0x260F JUMP JUMPDEST PUSH1 0x40 DUP3 ADD SWAP1 POP SWAP2 SWAP1 POP JUMP JUMPDEST PUSH0 PUSH1 0x20 DUP3 ADD SWAP1 POP DUP2 DUP2 SUB PUSH0 DUP4 ADD MSTORE PUSH2 0x2696 DUP2 PUSH2 0x265D JUMP JUMPDEST SWAP1 POP SWAP2 SWAP1 POP JUMP JUMPDEST PUSH0 PUSH1 0x40 DUP3 ADD SWAP1 POP PUSH2 0x26B0 PUSH0 DUP4 ADD DUP6 PUSH2 0x235F JUMP JUMPDEST PUSH2 0x26BD PUSH1 0x20 DUP4 ADD DUP5 PUSH2 0x235F JUMP JUMPDEST SWAP4 SWAP3 POP POP POP JUMP JUMPDEST PUSH32 0x4E487B7100000000000000000000000000000000000000000000000000000000 PUSH0 MSTORE PUSH1 0x32 PUSH1 0x4 MSTORE PUSH1 0x24 PUSH0 REVERT JUMPDEST PUSH32 0x45726F6F3A2041636573736F20657870697261646F206F75206E616F20617574 PUSH0 DUP3 ADD MSTORE PUSH32 0x6F72697A61646F2E000000000000000000000000000000000000000000000000 PUSH1 0x20 DUP3 ADD MSTORE POP JUMP JUMPDEST PUSH0 PUSH2 0x274B PUSH1 0x28 DUP4 PUSH2 0x210F JUMP JUMPDEST SWAP2 POP PUSH2 0x2756 DUP3 PUSH2 0x26F1 JUMP JUMPDEST PUSH1 0x40 DUP3 ADD SWAP1 POP SWAP2 SWAP1 POP JUMP JUMPDEST PUSH0 PUSH1 0x20 DUP3 ADD SWAP1 POP DUP2 DUP2 SUB PUSH0 DUP4 ADD MSTORE PUSH2 0x2778 DUP2 PUSH2 0x273F JUMP JUMPDEST SWAP1 POP SWAP2 SWAP1 POP JUMP JUMPDEST PUSH32 0x4E487B7100000000000000000000000000000000000000000000000000000000 PUSH0 MSTORE PUSH1 0x22 PUSH1 0x4 MSTORE PUSH1 0x24 PUSH0 REVERT JUMPDEST PUSH0 PUSH1 0x2 DUP3 DIV SWAP1 POP PUSH1 0x1 DUP3 AND DUP1 PUSH2 0x27C3 JUMPI PUSH1 0x7F DUP3 AND SWAP2 POP JUMPDEST PUSH1 0x20 DUP3 LT DUP2 SUB PUSH2 0x27D6 JUMPI PUSH2 0x27D5 PUSH2 0x277F JUMP JUMPDEST JUMPDEST POP SWAP2 SWAP1 POP JUMP JUMPDEST PUSH32 0x53657573206461646F7320666F72616D20616365737361646F732E0000000000 PUSH0 DUP3 ADD MSTORE POP JUMP JUMPDEST PUSH0 PUSH2 0x2810 PUSH1 0x1B DUP4 PUSH2 0x210F JUMP JUMPDEST SWAP2 POP PUSH2 0x281B DUP3 PUSH2 0x27DC JUMP JUMPDEST PUSH1 0x20 DUP3 ADD SWAP1 POP SWAP2 SWAP1 POP JUMP JUMPDEST PUSH0 PUSH1 0x40 DUP3 ADD SWAP1 POP PUSH2 0x2839 PUSH0 DUP4 ADD DUP5 PUSH2 0x235F JUMP JUMPDEST DUP2 DUP2 SUB PUSH1 0x20 DUP4 ADD MSTORE PUSH2 0x284A DUP2 PUSH2 0x2804 JUMP JUMPDEST SWAP1 POP SWAP3 SWAP2 POP POP JUMP JUMPDEST PUSH0 DUP2 SWAP1 POP DUP2 PUSH0 MSTORE PUSH1 0x20 PUSH0 KECCAK256 SWAP1 POP SWAP2 SWAP1 POP JUMP JUMPDEST PUSH0 PUSH1 0x20 PUSH1 0x1F DUP4 ADD DIV SWAP1 POP SWAP2 SWAP1 POP JUMP JUMPDEST PUSH0 DUP3 DUP3 SHL SWAP1 POP SWAP3 SWAP2 POP POP JUMP JUMPDEST PUSH0 PUSH1 0x8 DUP4 MUL PUSH2 0x28AE PUSH32 0xFFFFFFFFFFFFFFFFFFFFFFFFFFFFFFFFFFFFFFFFFFFFFFFFFFFFFFFFFFFFFFFF DUP3 PUSH2 0x2873 JUMP JUMPDEST PUSH2 0x28B8 DUP7 DUP4 PUSH2 0x2873 JUMP JUMPDEST SWAP6 POP DUP1 NOT DUP5 AND SWAP4 POP DUP1 DUP7 AND DUP5 OR SWAP3 POP POP POP SWAP4 SWAP3 POP POP POP JUMP JUMPDEST PUSH0 DUP2 SWAP1 POP SWAP2 SWAP1 POP JUMP JUMPDEST PUSH0 PUSH2 0x28F3 PUSH2 0x28EE PUSH2 0x28E9 DUP5 PUSH2 0x2021 JUMP JUMPDEST PUSH2 0x28D0 JUMP JUMPDEST PUSH2 0x2021 JUMP JUMPDEST SWAP1 POP SWAP2 SWAP1 POP JUMP JUMPDEST PUSH0 DUP2 SWAP1 POP SWAP2 SWAP1 POP JUMP JUMPDEST PUSH2 0x290C DUP4 PUSH2 0x28D9 JUMP JUMPDEST PUSH2 0x2920 PUSH2 0x2918 DUP3 PUSH2 0x28FA JUMP JUMPDEST DUP5 DUP5 SLOAD PUSH2 0x287F JUMP JUMPDEST DUP3 SSTORE POP POP POP POP JUMP JUMPDEST PUSH0 SWAP1 JUMP JUMPDEST PUSH2 0x2934 PUSH2 0x2928 JUMP JUMPDEST PUSH2 0x293F DUP2 DUP5 DUP5 PUSH2 0x2903 JUMP JUMPDEST POP POP POP JUMP JUMPDEST JUMPDEST DUP2 DUP2 LT ISZERO PUSH2 0x2962 JUMPI PUSH2 0x2957 PUSH0 DUP3 PUSH2 0x292C JUMP JUMPDEST PUSH1 0x1 DUP2 ADD SWAP1 POP PUSH2 0x2945 JUMP JUMPDEST POP POP JUMP JUMPDEST PUSH1 0x1F DUP3 GT ISZERO PUSH2 0x29A7 JUMPI PUSH2 0x2978 DUP2 PUSH2 0x2852 JUMP JUMPDEST PUSH2 0x2981 DUP5 PUSH2 0x2864 JUMP JUMPDEST DUP2 ADD PUSH1 0x20 DUP6 LT ISZERO PUSH2 0x2990 JUMPI DUP2 SWAP1 POP JUMPDEST PUSH2 0x29A4 PUSH2 0x299C DUP6 PUSH2 0x2864 JUMP JUMPDEST DUP4 ADD DUP3 PUSH2 0x2944 JUMP JUMPDEST POP POP JUMPDEST POP POP POP JUMP JUMPDEST PUSH0 DUP3 DUP3 SHR SWAP1 POP SWAP3 SWAP2 POP POP JUMP JUMPDEST PUSH0 PUSH2 0x29C7 PUSH0 NOT DUP5 PUSH1 0x8 MUL PUSH2 0x29AC JUMP JUMPDEST NOT DUP1 DUP4 AND SWAP2 POP POP SWAP3 SWAP2 POP POP JUMP JUMPDEST PUSH0 PUSH2 0x29DF DUP4 DUP4 PUSH2 0x29B8 JUMP JUMPDEST SWAP2 POP DUP3 PUSH1 0x2 MUL DUP3 OR SWAP1 POP SWAP3 SWAP2 POP POP JUMP JUMPDEST PUSH2 0x29F8 DUP3 PUSH2 0x2105 JUMP JUMPDEST PUSH8 0xFFFFFFFFFFFFFFFF DUP2 GT ISZERO PUSH2 0x2A11 JUMPI PUSH2 0x2A10 PUSH2 0x238F JUMP JUMPDEST JUMPDEST PUSH2 0x2A1B DUP3 SLOAD PUSH2 0x27AC JUMP JUMPDEST PUSH2 0x2A26 DUP3 DUP3 DUP6 PUSH2 0x2966 JUMP JUMPDEST PUSH0 PUSH1 0x20 SWAP1 POP PUSH1 0x1F DUP4 GT PUSH1 0x1 DUP2 EQ PUSH2 0x2A57 JUMPI PUSH0 DUP5 ISZERO PUSH2 0x2A45 JUMPI DUP3 DUP8 ADD MLOAD SWAP1 POP JUMPDEST PUSH2 0x2A4F DUP6 DUP3 PUSH2 0x29D4 JUMP JUMPDEST DUP7 SSTORE POP PUSH2 0x2AB6 JUMP JUMPDEST PUSH1 0x1F NOT DUP5 AND PUSH2 0x2A65 DUP7 PUSH2 0x2852 JUMP JUMPDEST PUSH0 JUMPDEST DUP3 DUP2 LT ISZERO PUSH2 0x2A8C JUMPI DUP5 DUP10 ADD MLOAD DUP3 SSTORE PUSH1 0x1 DUP3 ADD SWAP2 POP PUSH1 0x20 DUP6 ADD SWAP5 POP PUSH1 0x20 DUP2 ADD SWAP1 POP PUSH2 0x2A67 JUMP JUMPDEST DUP7 DUP4 LT ISZERO PUSH2 0x2AA9 JUMPI DUP5 DUP10 ADD MLOAD PUSH2 0x2AA5 PUSH1 0x1F DUP10 AND DUP3 PUSH2 0x29B8 JUMP JUMPDEST DUP4 SSTORE POP JUMPDEST PUSH1 0x1 PUSH1 0x2 DUP9 MUL ADD DUP9 SSTORE POP POP POP JUMPDEST POP POP POP POP POP POP JUMP JUMPDEST PUSH0 PUSH1 0x40 DUP3 ADD SWAP1 POP PUSH2 0x2AD1 PUSH0 DUP4 ADD DUP6 PUSH2 0x235F JUMP JUMPDEST DUP2 DUP2 SUB PUSH1 0x20 DUP4 ADD MSTORE PUSH2 0x2AE3 DUP2 DUP5 PUSH2 0x213D JUMP JUMPDEST SWAP1 POP SWAP4 SWAP3 POP POP POP JUMP JUMPDEST PUSH32 0x41636573736F206E656761646F2E20566F6365206E616F206573746120617574 PUSH0 DUP3 ADD MSTORE PUSH32 0x6F72697A61646F20612061636573736172206F73206461646F73206465737465 PUSH1 0x20 DUP3 ADD MSTORE PUSH32 0x2070616369656E74652E00000000000000000000000000000000000000000000 PUSH1 0x40 DUP3 ADD MSTORE POP JUMP JUMPDEST PUSH0 PUSH2 0x2B6C PUSH1 0x4A DUP4 PUSH2 0x210F JUMP JUMPDEST SWAP2 POP PUSH2 0x2B77 DUP3 PUSH2 0x2AEC JUMP JUMPDEST PUSH1 0x60 DUP3 ADD SWAP1 POP SWAP2 SWAP1 POP JUMP JUMPDEST PUSH0 PUSH1 0x20 DUP3 ADD SWAP1 POP DUP2 DUP2 SUB PUSH0 DUP4 ADD MSTORE PUSH2 0x2B99 DUP2 PUSH2 0x2B60 JUMP JUMPDEST SWAP1 POP SWAP2 SWAP1 POP JUMP JUMPDEST PUSH0 DUP2 SWAP1 POP SWAP3 SWAP2 POP POP JUMP JUMPDEST PUSH0 PUSH2 0x2BB4 DUP3 PUSH2 0x2105 JUMP JUMPDEST PUSH2 0x2BBE DUP2 DUP6 PUSH2 0x2BA0 JUMP JUMPDEST SWAP4 POP PUSH2 0x2BCE DUP2 DUP6 PUSH1 0x20 DUP7 ADD PUSH2 0x211F JUMP JUMPDEST DUP1 DUP5 ADD SWAP2 POP POP SWAP3 SWAP2 POP POP JUMP JUMPDEST PUSH0 PUSH2 0x2BE5 DUP3 DUP5 PUSH2 0x2BAA JUMP JUMPDEST SWAP2 POP DUP2 SWAP1 POP SWAP3 SWAP2 POP POP JUMP JUMPDEST PUSH0 DUP2 SLOAD PUSH2 0x2BFC DUP2 PUSH2 0x27AC JUMP JUMPDEST PUSH2 0x2C06 DUP2 DUP7 PUSH2 0x2BA0 JUMP JUMPDEST SWAP5 POP PUSH1 0x1 DUP3 AND PUSH0 DUP2 EQ PUSH2 0x2C20 JUMPI PUSH1 0x1 DUP2 EQ PUSH2 0x2C35 JUMPI PUSH2 0x2C67 JUMP JUMPDEST PUSH1 0xFF NOT DUP4 AND DUP7 MSTORE DUP2 ISZERO ISZERO DUP3 MUL DUP7 ADD SWAP4 POP PUSH2 0x2C67 JUMP JUMPDEST PUSH2 0x2C3E DUP6 PUSH2 0x2852 JUMP JUMPDEST PUSH0 JUMPDEST DUP4 DUP2 LT ISZERO PUSH2 0x2C5F JUMPI DUP2 SLOAD DUP2 DUP10 ADD MSTORE PUSH1 0x1 DUP3 ADD SWAP2 POP PUSH1 0x20 DUP2 ADD SWAP1 POP PUSH2 0x2C40 JUMP JUMPDEST DUP4 DUP9 ADD SWAP6 POP POP POP JUMPDEST POP POP POP SWAP3 SWAP2 POP POP JUMP JUMPDEST PUSH0 PUSH2 0x2C7B DUP3 DUP5 PUSH2 0x2BF0 JUMP JUMPDEST SWAP2 POP DUP2 SWAP1 POP SWAP3 SWAP2 POP POP JUMP JUMPDEST PUSH32 0x53656E686120696E76616C6964612E0000000000000000000000000000000000 PUSH0 DUP3 ADD MSTORE POP JUMP JUMPDEST PUSH0 PUSH2 0x2CBA PUSH1 0xF DUP4 PUSH2 0x210F JUMP JUMPDEST SWAP2 POP PUSH2 0x2CC5 DUP3 PUSH2 0x2C86 JUMP JUMPDEST PUSH1 0x20 DUP3 ADD SWAP1 POP SWAP2 SWAP1 POP JUMP JUMPDEST PUSH0 PUSH1 0x20 DUP3 ADD SWAP1 POP DUP2 DUP2 SUB PUSH0 DUP4 ADD MSTORE PUSH2 0x2CE7 DUP2 PUSH2 0x2CAE JUMP JUMPDEST SWAP1 POP SWAP2 SWAP1 POP JUMP JUMPDEST PUSH32 0x4E487B7100000000000000000000000000000000000000000000000000000000 PUSH0 MSTORE PUSH1 0x11 PUSH1 0x4 MSTORE PUSH1 0x24 PUSH0 REVERT JUMPDEST PUSH0 PUSH2 0x2D25 DUP3 PUSH2 0x2021 JUMP JUMPDEST SWAP2 POP PUSH2 0x2D30 DUP4 PUSH2 0x2021 JUMP JUMPDEST SWAP3 POP DUP3 DUP3 ADD SWAP1 POP DUP1 DUP3 GT ISZERO PUSH2 0x2D48 JUMPI PUSH2 0x2D47 PUSH2 0x2CEE JUMP JUMPDEST JUMPDEST SWAP3 SWAP2 POP POP JUMP INVALID LOG2 PUSH5 0x6970667358 0x22 SLT KECCAK256 EXTCODECOPY 0x2C 0xD1 RETURN SMOD PUSH19 0xB49EB3EC84DFE3EE72B41058136F7B99FB1CFC DUP3 PUSH15 0xFDE70806964736F6C634300081A00 CALLER "
		},
		"gasEstimates": {
			"creation": {
				"codeDepositCost": "2330400",
				"executionCost": "26764",
				"totalCost": "2357164"
			},
			"external": {
				"Registrar_novo_paciente(address,string,string)": "infinite",
				"administrador()": "2619",
				"atualizar_dados_paciente(address,string)": "infinite",
				"conceder_acesso_medico(address,address)": "infinite",
				"conceder_acesso_temp(address,address,uint256)": "infinite",
				"configurar_token(address,string)": "infinite",
				"obterDadosPacienteComToken(address,string)": "infinite",
				"obterDadosPacienteTemp(address)": "infinite",
				"obter_Dados_Paciente(address)": "infinite",
				"remover_acesso_medico(address)": "infinite",
				"verHistoricoAcessos(address)": "infinite",
				"verHistoricoAlteracoes(address)": "infinite"
			}
		},
		"methodIdentifiers": {
			"Registrar_novo_paciente(address,string,string)": "8070d783",
			"administrador()": "7062b97d",
			"atualizar_dados_paciente(address,string)": "c05754e3",
			"conceder_acesso_medico(address,address)": "56b310f7",
			"conceder_acesso_temp(address,address,uint256)": "d2212084",
			"configurar_token(address,string)": "7dbb16e4",
			"obterDadosPacienteComToken(address,string)": "a0b832e8",
			"obterDadosPacienteTemp(address)": "50c5dcfe",
			"obter_Dados_Paciente(address)": "84f78c84",
			"remover_acesso_medico(address)": "0b6532ca",
			"verHistoricoAcessos(address)": "16b26304",
			"verHistoricoAlteracoes(address)": "6af851c7"
		}
	},
	"abi": [
		{
			"inputs": [],
			"stateMutability": "nonpayable",
			"type": "constructor"
		},
		{
			"anonymous": false,
			"inputs": [
				{
					"indexed": false,
					"internalType": "address",
					"name": "enderecoPaciente",
					"type": "address"
				},
				{
					"indexed": false,
					"internalType": "address",
					"name": "medico",
					"type": "address"
				}
			],
			"name": "AcessoConcedido",
			"type": "event"
		},
		{
			"anonymous": false,
			"inputs": [
				{
					"indexed": false,
					"internalType": "address",
					"name": "enderecoPaciente",
					"type": "address"
				},
				{
					"indexed": false,
					"internalType": "address",
					"name": "medico",
					"type": "address"
				}
			],
			"name": "DadosAcessados",
			"type": "event"
		},
		{
			"anonymous": false,
			"inputs": [
				{
					"indexed": false,
					"internalType": "address",
					"name": "enderecoPaciente",
					"type": "address"
				},
				{
					"indexed": false,
					"internalType": "string",
					"name": "dados_novos",
					"type": "string"
				}
			],
			"name": "DadosAtualizados",
			"type": "event"
		},
		{
			"anonymous": false,
			"inputs": [
				{
					"indexed": false,
					"internalType": "address",
					"name": "enderecoPaciente",
					"type": "address"
				},
				{
					"indexed": false,
					"internalType": "string",
					"name": "mensagem",
					"type": "string"
				}
			],
			"name": "NotificacaoPaciente",
			"type": "event"
		},
		{
			"anonymous": false,
			"inputs": [
				{
					"indexed": false,
					"internalType": "address",
					"name": "enderecoPaciente",
					"type": "address"
				},
				{
					"indexed": false,
					"internalType": "string",
					"name": "nome",
					"type": "string"
				}
			],
			"name": "PacienteRegistrado",
			"type": "event"
		},
		{
			"inputs": [
				{
					"internalType": "address",
					"name": "enderecoPaciente",
					"type": "address"
				},
				{
					"internalType": "string",
					"name": "nome",
					"type": "string"
				},
				{
					"internalType": "string",
					"name": "dados",
					"type": "string"
				}
			],
			"name": "Registrar_novo_paciente",
			"outputs": [],
			"stateMutability": "nonpayable",
			"type": "function"
		},
		{
			"inputs": [],
			"name": "administrador",
			"outputs": [
				{
					"internalType": "address",
					"name": "",
					"type": "address"
				}
			],
			"stateMutability": "view",
			"type": "function"
		},
		{
			"inputs": [
				{
					"internalType": "address",
					"name": "enderecoPaciente",
					"type": "address"
				},
				{
					"internalType": "string",
					"name": "dados_novos",
					"type": "string"
				}
			],
			"name": "atualizar_dados_paciente",
			"outputs": [],
			"stateMutability": "nonpayable",
			"type": "function"
		},
		{
			"inputs": [
				{
					"internalType": "address",
					"name": "enderecoPaciente",
					"type": "address"
				},
				{
					"internalType": "address",
					"name": "enderecoMedico",
					"type": "address"
				}
			],
			"name": "conceder_acesso_medico",
			"outputs": [],
			"stateMutability": "nonpayable",
			"type": "function"
		},
		{
			"inputs": [
				{
					"internalType": "address",
					"name": "enderecoPaciente",
					"type": "address"
				},
				{
					"internalType": "address",
					"name": "enderecoMedico",
					"type": "address"
				},
				{
					"internalType": "uint256",
					"name": "duracao",
					"type": "uint256"
				}
			],
			"name": "conceder_acesso_temp",
			"outputs": [],
			"stateMutability": "nonpayable",
			"type": "function"
		},
		{
			"inputs": [
				{
					"internalType": "address",
					"name": "enderecoPaciente",
					"type": "address"
				},
				{
					"internalType": "string",
					"name": "token",
					"type": "string"
				}
			],
			"name": "configurar_token",
			"outputs": [],
			"stateMutability": "nonpayable",
			"type": "function"
		},
		{
			"inputs": [
				{
					"internalType": "address",
					"name": "enderecoPaciente",
					"type": "address"
				},
				{
					"internalType": "string",
					"name": "token",
					"type": "string"
				}
			],
			"name": "obterDadosPacienteComToken",
			"outputs": [
				{
					"internalType": "string",
					"name": "nome",
					"type": "string"
				},
				{
					"internalType": "string",
					"name": "dados",
					"type": "string"
				}
			],
			"stateMutability": "nonpayable",
			"type": "function"
		},
		{
			"inputs": [
				{
					"internalType": "address",
					"name": "enderecoPaciente",
					"type": "address"
				}
			],
			"name": "obterDadosPacienteTemp",
			"outputs": [
				{
					"internalType": "string",
					"name": "nome",
					"type": "string"
				},
				{
					"internalType": "string",
					"name": "dados",
					"type": "string"
				}
			],
			"stateMutability": "nonpayable",
			"type": "function"
		},
		{
			"inputs": [
				{
					"internalType": "address",
					"name": "enderecoPaciente",
					"type": "address"
				}
			],
			"name": "obter_Dados_Paciente",
			"outputs": [
				{
					"internalType": "string",
					"name": "nome",
					"type": "string"
				},
				{
					"internalType": "string",
					"name": "dados",
					"type": "string"
				}
			],
			"stateMutability": "nonpayable",
			"type": "function"
		},
		{
			"inputs": [
				{
					"internalType": "address",
					"name": "enderecoPaciente",
					"type": "address"
				}
			],
			"name": "remover_acesso_medico",
			"outputs": [],
			"stateMutability": "nonpayable",
			"type": "function"
		},
		{
			"inputs": [
				{
					"internalType": "address",
					"name": "enderecoPaciente",
					"type": "address"
				}
			],
			"name": "verHistoricoAcessos",
			"outputs": [
				{
					"components": [
						{
							"internalType": "address",
							"name": "medico",
							"type": "address"
						},
						{
							"internalType": "uint256",
							"name": "timestamp",
							"type": "uint256"
						}
					],
					"internalType": "struct Valida_dados_pacientes.Acesso[]",
					"name": "",
					"type": "tuple[]"
				}
			],
			"stateMutability": "view",
			"type": "function"
		},
		{
			"inputs": [
				{
					"internalType": "address",
					"name": "enderecoPaciente",
					"type": "address"
				}
			],
			"name": "verHistoricoAlteracoes",
			"outputs": [
				{
					"components": [
						{
							"internalType": "string",
							"name": "dados_originais",
							"type": "string"
						},
						{
							"internalType": "string",
							"name": "dados_novos",
							"type": "string"
						},
						{
							"internalType": "uint256",
							"name": "timestamp",
							"type": "uint256"
						}
					],
					"internalType": "struct Valida_dados_pacientes.Alteracao[]",
					"name": "",
					"type": "tuple[]"
				}
			],
			"stateMutability": "view",
			"type": "function"
		}
	]
}